:1000000060420020F9330000936E0100E5330000E8
:10001000E5330000E5330000E53300000000000098
:10002000000000000000000000000000313400006B
:10003000E533000000000000C9350000E533000092
:1000400035360000C9F300003536000035360000B3
:1000500035360000353600003536000035360000F4
:1000600035360000353600003536000035360000E4
:1000700035360000353600003536000035360000D4
:1000800035360000353600003536000035360000C4
:1000900035360000353600003536000035360000B4
:1000A00035360000353600003536000035360000A4
:0800B000353600003536000072
:1000B80080F0004002E000BF81F0004142001FBF15
:1000C8005FEA410392EA030F7FEA226C7FEA236C1E
:1000D8006AD04FEA1262D2EB1363C1BFD218414013
:1000E80048404140B8BF5B42192B88BF704710F0A9
:1000F800004F40F4000020F07F4018BF404211F04C
:10010800004F41F4000121F07F4118BF494292EAB3
:10011800030F3FD0A2F1010241FA03FC10EB0C00DF
:10012800C3F1200301FA03F100F0004302D549426C
:1001380060EB4000B0F5000F13D3B0F1807F06D319
:1001480040084FEA310102F10102FE2A51D2B1F111
:10015800004F40EBC25008BF20F0010040EA030006
:100168007047490040EB0000013A28BFB0F5000F86
:10017800EDD2B0FA80FCACF1080CB2EB0C0200FA3C
:100188000CF0AABF00EBC25052421843BCBFD0408B
:100198001843704792F0000F81F4000106BF80F405
:1001A80000000132013BB5E74FEA41037FEA226CC8
:1001B80018BF7FEA236C21D092EA030F04D092F093
:1001C800000F08BF0846704790EA010F1CBF0020C7
:1001D800704712F07F4F04D1400028BF40F0004024
:1001E800704712F100723CBF00F50000704700F044
:1001F800004343F0FE4040F4000070477FEA22626B
:1002080016BF08467FEA23630146420206BF5FEA3B
:10021800412390EA010F40F4800070474FF000033B
:1002280004E000BF10F0004348BF40425FEA000C02
:1002380008BF704743F0964301464FF000001CE0AA
:1002480050EA010208BF70474FF000030AE000BF00
:1002580050EA010208BF704711F0004302D540423E
:1002680061EB41015FEA010C02BF844601460020B0
:1002780043F0B64308BFA3F18053A3F50003BCFACB
:100288008CF2083AA3EBC25310DB01FA02FC634478
:1002980000FA02FCC2F12002BCF1004F20FA02F27F
:1002A80043EB020008BF20F00100704702F1200272
:1002B80001FA02FCC2F1200250EA4C0021FA02F2D3
:1002C80043EB020008BF20EADC7070474FF0FF0CD8
:1002D8001CEAD0521EBF1CEAD15392EA0C0F93EAD3
:1002E8000C0F6FD01A4480EA010C400218BF5FEA75
:1002F80041211ED04FF0006343EA501043EA5111E8
:10030800A0FB01310CF00040B1F5000F3EBF4900E1
:1003180041EAD3715B0040EA010062F17F02FD2AE5
:100328001DD8B3F1004F40EBC25008BF20F00100C8
:10033800704790F0000F0CF0004C08BF49024CEADF
:10034800502040EA51207F3AC2BFD2F1FF0340EA71
:10035800C250704740F400004FF00003013A5DDCE2
:1003680012F1190FDCBF00F000407047C2F1000223
:10037800410021FA02F1C2F1200200FA02FC5FEA10
:10038800310040F1000053EA4C0308BF20EADC705A
:10039800704792F0000F00F0004C02BF400010F4CC
:1003A800000F013AF9D040EA0C0093F0000F01F079
:1003B800004C02BF490011F4000F013BF9D041EA9B
:1003C8000C018FE70CEAD15392EA0C0F18BF93EA9D
:1003D8000C0F0AD030F0004C18BF31F0004CD8D1C7
:1003E80080EA010000F00040704790F0000F17BF4E
:1003F80090F0004F084691F0000F91F0004F14D094
:1004080092EA0C0F01D142020FD193EA0C0F03D1EB
:100418004B0218BF084608D180EA010000F00040EE
:1004280040F0FE4040F40000704740F0FE4040F4C9
:10043800400070474FF0FF0C1CEAD0521EBF1CEA68
:10044800D15392EA0C0F93EA0C0F69D0A2EB030286
:1004580080EA010C49024FEA402037D04FF0805320
:1004680043EA111143EA10130CF000408B4238BFE5
:100478005B0042F17D024FF4000C8B4224BF5B1AF3
:1004880040EA0C00B3EB510F24BFA3EB510340EA41
:100498005C00B3EB910F24BFA3EB910340EA9C00EF
:1004A800B3EBD10F24BFA3EBD10340EADC001B015F
:1004B80018BF5FEA1C1CE0D1FD2A3FF650AF8B4203
:1004C80040EBC25008BF20F0010070470CF0004C10
:1004D8004CEA50207F32C2BFD2F1FF0340EAC2503B
:1004E800704740F400004FF00003013A37E792F0FC
:1004F800000F00F0004C02BF400010F4000F013A5A
:10050800F9D040EA0C0093F0000F01F0004C02BF54
:10051800490011F4000F013BF9D041EA0C0195E7BD
:100528000CEAD15392EA0C0F08D142027FF47DAF56
:1005380093EA0C0F7FF470AF084676E793EA0C0F46
:1005480004D14B023FF44CAF08466EE730F0004C44
:1005580018BF31F0004CCAD130F000427FF45CAFD4
:1005680031F000437FF43CAF5FE700BF4FF0FF3C42
:1005780006E000BF4FF0010C02E000BF4FF0010C95
:100588004DF804CD4FEA40024FEA41037FEA226C5E
:1005980018BF7FEA236C11D001B052EA530C18BF80
:1005A80090EA010F58BFB2EB030088BFC81738BFE5
:1005B8006FEAE17018BF40F0010070477FEA226CD3
:1005C80002D15FEA402C05D17FEA236CE4D15FEACF
:1005D800412CE1D05DF8040B704700BF8446084603
:1005E8006146FFE70FB5FFF7C9FF002848BF10F1C4
:1005F800000F0FBD4DF808EDFFF7F4FF0CBF012009
:1006080000205DF808FB00BF4DF808EDFFF7EAFF92
:1006180034BF012000205DF808FB00BF4DF808ED4D
:10062800FFF7E0FF94BF012000205DF808FB00BF42
:100638004DF808EDFFF7D2FF94BF012000205DF8C8
:1006480008FB00BF4DF808EDFFF7C8FF34BF0120D5
:1006580000205DF808FB00BF7BB972B90029BEBF56
:1006680000204FF0004106E008BF00281CBF6FF0D3
:1006780000414FF0FF3000F057B8ADF1080C6DE9BC
:1006880004CE002909DB002B1ADB00F057F8DDF84F
:1006980004E0DDE9022304B07047404261EB410108
:1006A800002B1BDB00F04AF8DDF804E0DDE902234B
:1006B80004B0404261EB4101524263EB430370478F
:1006C800524263EB430300F039F8DDF804E0DDE95A
:1006D800022304B0404261EB41017047524263EB90
:1006E800430300F02BF8DDF804E0DDE9022304B051
:1006F800524263EB4303704753B94AB9002908BF14
:1007080000281CBF4FF0FF314FF0FF3000F00CB84D
:10071800ADF1080C6DE904CE00F010F8DDF804E046
:10072800DDE9022304B07047704700BF034613F8A1
:10073800012B002AFBD1181A013870472DE9F04720
:100748008C468E46089E154604461946002B40F0F6
:10075800D080724547D9B2FA82F74FB1C7F120036A
:100768000EFA07FC20FA03F3BD4043EA0C0CBC4028
:100778004FEA154EA8B2BCFBFEF8230C0EFB18CCB2
:1007880008FB00F943EA0C43994528D9EB1808F10E
:10079800FF3204D2994502D9A8F102022B44A3EBF7
:1007A8000903A4B2B3FBFEFC0EFB1C330CFB00F0E8
:1007B80044EA0344A04214D92C190CF1FF3304D2A3
:1007C800A04202D9ACF102032C44241A43EA0240A5
:1007D8001EB1FC40002334607360BDE8F0874246D8
:1007E800DDE76346F1E7002A79D0B2FA82F3002BFD
:1007F8003FD01946C1F1200302FA01F52EFA03F29F
:100808000EFA01FE20FA03F343EA0E034FEA154EEF
:1008180000FA01F4B2FBFEFCAFB20EFB1C201A0C6E
:100828000CFB07F842EA004290455AD9AA180CF185
:10083800FF3004D2904502D9ACF102002A44A2EB61
:1008480008029BB2B2FBFEFC0EFB1C220CFB07F756
:1008580043EA02439F4246D9EB180CF1FF3204D217
:100868009F4202D9ACF102022B44DB1B42EA004250
:1008780002E0AEEB020301224FEA154EAFB2B3FB22
:10088800FEFC200C0EFB1C330CFB07F840EA03436C
:1008980098452AD9EB180CF1FF3004D2984502D9B3
:1008A800ACF102002B44A3EB0803A4B2B3FBFEFC9B
:1008B8000EFB1C330CFB07F744EA0344A74216D986
:1008C8002C190CF1FF3304D2A74202D9ACF1020370
:1008D8002C44E41B43EA00400F46114678E71F21E9
:1008E80088E76046ABE76246BFE76046DBE76346FA
:1008F800EFE7734506D916B9002108466DE7C6E942
:10090800000EF9E7B3FA83F787B9734501D382423A
:1009180007D8841A6EEB030301209C461EB90021F8
:100928005BE73846FAE7C6E9004CF8E7C7F1200C60
:10093800BB4022FA0CF51D4320FA0CF12EFA0CF3F9
:100948000EFA07FE41EA0E014FEA154900FA07F4CC
:10095800B3FBF9F81FFA85FE09FB18300B0C08FBEE
:100968000EFA43EA00439A4502FA07F240D9EB1817
:1009780008F1FF3004D29A4502D9A8F102002B44AD
:10098800A3EB0A0389B2B3FBF9F809FB183308FB98
:100998000EFE41EA03418E452CD9691808F1FF3350
:1009A80004D28E4502D9A8F10203294443EA004043
:1009B800A0FB0298A1EB0E014145CE46434602D367
:1009C80006D14C4504D2B9EB020E68EB0503013899
:1009D800002EA4D0B4EB0E0261EB030101FA0CFC6B
:1009E80022FA07F34CEA0303F940C6E9003196E717
:1009F8004046C5E74346D9E72DE9F843D0E906382C
:100A0800456903EB08042F34A5420F46164619D84A
:100A1800DFF86C80A3FB080117A3D3E90023FFF7D5
:100A28006BFE0346601BA0FB080123F07F4412A362
:100A3800D3E90023FFF760FE20F07F403C60306080
:100A4800BDE8F883DFF838900BA3D3E90023A5FBB2
:100A58000901FFF751FE20F07F440A480A2106A346
:100A6800D3E90023E8FB0901FFF746FE20F07F40A9
:100A78003C603060BDE8F8838D49FD1A070000002E
:100A880000CA9A3B00166BF1002800F039812DE965
:100A9800F04FC14C94F85E30DA078DB000F12C812C
:100AA800627F94F8293004EB820204EB8303166A10
:100AB800DF6A0EB3354615F8020BC0F3801008F054
:100AC800F7F90368C6F802308388AB8033785B0691
:100AD80006D50621284606F06BFE002800F0428164
:100AE8003D4615F8020BC0F3801008F0E1F90368E1
:100AF800C7F802308388AB80337813F00E0F40F0CC
:100B0800878063691BB10C200DB0BDE8F08F08F039
:100B18004FFE8146002800F02E8108F055FE8246DF
:100B2800002800F025810AF0B5FE0546002800F0EF
:100B38002881C06E4FF6FF73AB8405F1100B0028B7
:100B480000F01B8105F1600205F15C0106F03CFE36
:100B5800B5F8583023F4EF6323F0070343F48C739C
:100B680043F00103A5F8583095F8373003F03F03F8
:100B780063F07F0385F8373095F8723023F0070368
:100B880085F8723095F83C3023F00F034FF00008D9
:100B980085F83C300623A5F828312846C5E912888F
:100BA800C5F86C80A5F8708085F83980A5F82A808A
:100BB800C5F82E80C5F85080A5F80081A5F82C81CD
:100BC8000BF0FAFF85F80481C5F808910BF074F86A
:100BD80095F8343160F3020385F834310BF072F87C
:100BE80095F8343160F3C50385F8343105F1800098
:100BF8000BF03CFEC4E9159AC4F814B0C5E90288A4
:100C080085F800802D610FF06FF8002840F0AC8067
:100C1800237E0121C3F342030DF12B008DF82B3005
:100C280006F074FF024600286CD0394630460AF0B8
:100C38005BFA5A4A5A4BB4F85C800721E0FB023150
:100C480000251846C4E9025551A3D3E900232570AD
:100C5800FFF752FD606008F0EFF800F10907B8F1FE
:100C6800000F07D1357805F00F05A5F10105B5FA94
:100C780085F56D09207E636865F3000010F00105B5
:100C8800207646D0474A0992002010600225464A3D
:100C9800DFF8188104930BAE019305920321CDE987
:100CA8000200069400903B46CDF81C8008962A4620
:100CB8000B9507F0E5FF314608F010FE10BB3C49E4
:100CC80005914AF2D8330093CDE90300CDE901003C
:100CD800CDF81C80089606943B46012203210B950B
:100CE80007F0B2FF314608F0F9FD58B994F85E30C4
:100CF80043F0010384F85E3000200DB0BDE8F08FAA
:100D08000AF08CB96369002B3FF4FDAE0AF05CF978
:100D1800F9E6244A2748049303F2471306940295F8
:100D280091211360A8FB000301FB08311F4B0793B7
:100D38001D4B05934FF6FF7309924FF0020803937A
:100D48000BAE13A3D3E90023CDF82C800896FFF748
:100D5800D3FC3B46CDE9005042462846032107F024
:100D68008FFFBFE71220CFE60AF02EF90320CBE66B
:100D7800484608F023FD0720C6E605F16400E8664A
:100D8800E0E6504608F026FD484608F017FDF2E771
:100D98008D49FD1A07000000B41B002000CA9A3BC9
:100DA8008C49FD1AA81B002069B100003D8F000086
:100DB8008DAE0000002AE78470B5037E8AB0C3F3C5
:100DC80042030D46044601210DF1230016468DF815
:100DD800233006F09BFE3146024628460AF084F985
:100DE8001D4A1E4B0721E0FB0231184618A3D3E920
:100DF8000023FFF781FC63689842054621D21B1A3D
:100E080000220192164A0293164BA21AA3FB023241
:100E18000221920900230A4409AE09911249059159
:100E2800CDE9033303210696D2B20093184607F0A2
:100E38007DFF314608F052FD38B9656000200AB0E0
:100E480070BDFBD9C21A0023DBE70C200AB070BDC5
:100E58008D49FD1A0700000000CA9A3B8C49FD1A0B
:100E6800B41B0020ABAAAAAA3D8F00000000000016
:100E78002DE9F04F05468BB08B460120022199469B
:100E8800144610F031FA002202218246012006F0B1
:100E9800EFFC2F494FF49C72284606F075FCC61CDF
:100EA8002C4B0093F6B201954B46324601210020A7
:100EB80007F08AFF10F0FD0F42D1274BA4FB03482F
:100EC800204621A3D3E900234146FFF715FC0895E6
:100ED80006956B680493214B20F07F47A7FB0331ED
:100EE800E01A1F4B07934FF007021E4B059302FBB6
:100EF80007114FF6FE7368EB010103934FF47A7202
:100F08000023FFF7F9FBCDF800B0CDE901704B469F
:100F180032460121002007F097FE10F0FD0F0DD199
:100F2800BAF1000F02D10BB0BDE8F08F0122022107
:100F380010460BB0BDE8F04F06F09ABC00DEEFE7B4
:100F480000DEBAE7AFF300808D49FD1A0700000004
:100F5800980B002075B7000000CA9A3B8D49FD1A0E
:100F68005DB70000BDEF00002DE9F0418468A28C58
:100F78004FF6FF739A428CB000F0B78005462046C2
:100F88000CF016F894F80461002E40F006812B8AC4
:100F9800E78D94F93720CDE90A66002B00F0A88088
:100FA800002AC0F201810023A4F82831AB7CA18D6E
:100FB80003F003030131012B89B200F0B580B4F8C6
:100FC8002C31002B00F0C6808B4240F216815B1A50
:100FD8009DB2062D94F83C30A4F82C518CBF002209
:100FE800012262F3820384F83C300023E3850DF18B
:100FF800270220460BF016FE743000F0F880062D0C
:10100800E38D98BF012600F2A0805D1CADB294F874
:10101800723013F008070AD1DDE90AC3002B4FD15B
:10102800BCF1000F00F0DC801F46194649E094F936
:10103800372023F00803002A84F87230C0F2A48015
:1010480094F85800C0F3C00100F007000EF0CEFC81
:10105800014694F8583094F8597003F00302283286
:10106800C3F34003D200DA40E38B03F23F10B2F53A
:10107800A07F2CBF801800F5A07007F0030228326B
:10108800D200C7F34007FA40B2F5A07F2CBF8318FF
:1010980000F5A0735818764A764B0721E0FB023119
:1010A800184671A3D3E90023FFF726FB616820F0F7
:1010B8007F408142DDE90AC380F08C80471A606076
:1010C8000021A28C24690694CDE9035603326A4DA7
:1010D8000291CDE900C7D2B201210020059507F0A1
:1010E80025FE10F0FD0F40F08D800CB0BDE8F081BA
:1010F800002AB8BF84F87560AB7CA18D03F00303A8
:101108000131012B89B20FD0B4F82831002B3FF4FC
:1011180056AF8B427DD95B1AA4F82831B4F82C312C
:10112800002B7FF451AF02E00023A4F82C3194F88F
:101138003C3023F0040384F83C300DF127022046AC
:101148000BF070FD743052D0E38DBB427FF45DAF7D
:1011580000255CE7E38C052B8BBF40F2E2424FF49D
:10116800FA725A4303FB0222B4F82A3142F2107091
:1011780000FB0323013BB3FBF2F39BB2A4F82C3131
:10118800002B7FF421AFD2E794F85900012100F039
:1011980007000EF02DFC01465BE7314620460CB0F7
:1011A800BDE8F0410AF03ABE94F87530002B37D00C
:1011B800013B84F8753004F1800840460BF098FB39
:1011C80000284AD040460BF093FB002837D0002374
:1011D800E385E8E6091A60607BBB51EA0C021DD181
:1011E8000DB9002E81D0002739463B4669E79DF8A6
:1011F800271020460AF012FE77E7082120460AF059
:101208000DFE72E708F094FB84423FF46EAF00DEF7
:101218006BE73E2120460AF001FE66E71F4650E7CD
:101228000AAA0BA92846FFF7E7FBDDE90A231343BF
:10123800C1D0237884F87530BDE7002741E702461E
:10124800D4E9170106F0D8FA0028C0D194F83C3048
:101258001B0744BF238DE385A5E6FF200AF0A0FD08
:10126800B0E700BFAFF300808D49FD1A070000000A
:1012780000CA9A3B8C49FD1AB5B70000000000006F
:101288002DE9F04F87B0B0F80071BDF84C9000918F
:10129800CDE90423B0F8C430BDF840A01F44BFB264
:1012A8000446A7EB090390F85800D4F8BC809EB216
:1012B800BDF844300193C0F3C001BDF8483003962F
:1012C80000F0070002930EF091FBE58C052D40F22B
:1012D800AC8015FB06F5ADB240F2E24BBAF1050F52
:1012E80040F2978094F8592094F8581002F00303BC
:1012F8002833C2F34002DB00D34001F00302283256
:10130800B3F5A47FC1F340014FEAC20222FA01F209
:1013180038BF4FF4A473B2F5A47F2CBF9B1803F514
:10132800A47303F2D51318446D4A6E4B0721E0FBF2
:10133800023118464FF09613E3619623238466A37F
:10134800D3E90023FFF7D8F9564620F07F4040F252
:10135800E2430BFB05F103FB06F64B1E3344B3FBDC
:10136800F6F31FFA83FB06FB0BF3994260605D46B8
:1013780041D25B48591AA1FB000157A3D3E90023C6
:10138800FFF7BAF920F07F408044B4F8C420B4F8DD
:101398000031A9EB07094D44ADB213442B44A4F81E
:1013A8000031638D13441D4494F837306585DB099B
:1013B80043D100DE00273546019B2385029BA4F814
:1013C8002A31A4F826A0314620460BF057FC009B92
:1013D80013B10023A4F82C3143462A463946204647
:1013E800FFF746FD94F8023143F0010384F8023117
:1013F80007B0BDE8F08F3A48C91AA1FB000136A32F
:10140800D3E90023FFF778F920F07F40A8EB000824
:10141800BBE74FF096130AF10106E3619623238494
:10142800B6B20A204FF4FA7393E7039B013515FB14
:1014380003F5ADB24FF4FA7B50E7216CA36C284F4B
:1014480001FB0233039A01FB1233A3640023E36711
:101458000EF09CFC054694F87400C0F342000EF0B0
:1014680097FC054406FB05F51F4B1E4805F574253A
:1014780005F23F25A3FB0535AD0CA36C25640BFBDA
:1014880005FB72085B44963A934228BF1346C4E9A9
:101498001123049B40F2E24909FB03F3072123656A
:1014A800EBFB07010CA3D3E90023FFF725F90F4B4A
:1014B800059AA8EB0008A3FB0230800A09FB00F09C
:1014C800A0FB070104A3D3E90023FFF715F9751B57
:1014D80020F07F4770E700BF8D49FD1A0700000024
:1014E80000CA9A3B8C49FD1A83DE1B435917B7D1B2
:1014F8002DE9F04F154693B00B6852F8087BB0F809
:101508002EC0D3F80090044682460E4690F830105C
:10151800D0F81E0094F81C805AF81CBB1090608C00
:10152800A5F808C09170D4F82A206A60D4F83A2047
:10153800C5F8222094F83E10ADF8440085F826102E
:1015480012AB13E9030005F122020E90ADF83C102E
:101558001046052106F0DAFA95F8272000F03F003A
:1015680060F3050285F8272094F83F20C2F30401B0
:1015780085F82810A18EE9820128C8F380180DD9B2
:1015880002F01F021B3202F01F020B2A06D889B292
:10159800063989B240F67A42914217D90022C9F831
:1015A800082095F82C3062F3000385F82C300126CA
:1015B800584621462671E46808F012F92068267119
:1015C800214613B0BDE8F04F08F016B93268002183
:1015D8005160E28EEB8A2A8340F2E24202FB03F377
:1015E8000B93628E0C9238460BF05CFB94F83F101C
:1015F80097F87400490961F3430087F874000EF006
:10160800C5FB0D9097F87400C0F342000EF0C0FBC4
:101618000D990B9B084403FB00F0974900F57420D3
:1016280000F23F20A1FB00105908800C963928636E
:10163800696394F8311040F2E24201FB02F26A64F5
:10164800228FA7F82A21194638460BF017FB8B4A38
:10165800C7F83021227F1AF0010FC2F3401240F080
:10166800FC80BDF83C30A4F823300E9884F81E8026
:101678004FF48073C4F81F00A383EB8AE3842B8B99
:101688002385B7F82A31638597F874300D92C3F330
:10169800420384F82C3038460AF008F92146A8821B
:1016A800E0805846746808F09BF80D9AA98AD4F827
:1016B8000080E1801C232371002A40F0BA80227741
:1016C8002146404608F098F895F8498095F848B0C2
:1016D80008F0070801210BF0070B40460EF088F9C7
:1016E8000BF00303283308F00302DB00CBF3400BB5
:1016F80023FA0BF32832B3F5A47FC8F340084FEA66
:10170800C20238BF4FF4A47322FA08F2B2F5A47FDC
:101718002CBF9B1803F5A47303F2D513DFF860817F
:101728000344044657480721E3FB08014FF096138A
:10173800C5E903334EA3D3E90023FEF7DDFF20F00C
:101748007F4078602A6B0B9B0C98A3EB020AF36826
:1017580040F2E24101FB003101F2B341891A0C1B4E
:1017680000220221012006F083F8484609F088FE8D
:101778003FA3D3E900230546A4FB0801FEF7BCFFFD
:10178800CDF80490B3684049009120F07F48AA1C26
:10179800363BD2B243440121002007F015FB012853
:1017A8005DD099F81830DB074FD438460AF07EF838
:1017B800334CAAFB044A2EA3D3E90023054651461D
:1017C8002046FEF799FF314BB668314A079220F060
:1017D8007F49A9FB0331E01A2E4B05934FF4F873A8
:1017E800069708937B6804934FF0070303FB0911DE
:1017F8006AEB010100244FF47A7200230394FEF788
:101808007BFF0335363EEDB2CDE90190CDF800807F
:1018180033462A460121204607F016FA10F0FD0F3C
:1018280023D101220221104613B0BDE8F04F06F083
:101838001FB895F8273043F0400385F82730281D56
:101848000DF094FC0122288539E70023012200933A
:101858001846114607F082FAA7E700DE01E708F00C
:1018680067F881459DD000DE9BE700DED9E700BF21
:101878008D49FD1A0700000083DE1B43404B4C00D6
:1018880000CA9A3B8C49FD1A45F000008D49FD1AA3
:1018980095EF0000BDEF00002DE9F04F8DB0484EE8
:1018A800484D824607F0C8FAF168074607F0C6FABD
:1018B8007168F76040A3D3E900230446A1FB050142
:1018C800FEF71AFF20F07F439C4257D30DF12F01FA
:1018D8000DF12E0007F0EEFFDFF8E8803568A5FB74
:1018E800085935A3D3E9002328464946FEF704FFE3
:1018F800CDF818A004467068334B0593A0FB080187
:101908002DA3D3E900234FF00008CDE90788FEF79F
:10191800F3FE2E4BCDF80C8024F07F44A4FB03315A
:1019280020F07F40072202FB04110490E81A69EBBB
:1019380001014FF47A720023FEF7DEFE9DF82FB006
:101948009DF82EA0CDF80080CDE901403B465A46CF
:101958005046032107F078F910F0FD0404D06FF029
:101968008B000DB0BDE8F08F19481A4A002312F019
:10197800DDFD90B930690DB0BDE8F08F30680EA379
:10198800D3E90023A0FB0501FEF7B6FE20F07F4156
:10199800384607F053FA074698E79DF82F209DF838
:1019A8002E0000942346032107F0D8F96FF0730046
:1019B800D7E700BFAFF300808D49FD1A070000008C
:1019C800E00C002000CA9A3B61F300008D49FD1A23
:1019D800E81E0020447B0B0038B50F4D044607F085
:1019E8002BFAA96807F02AFA696803460B48B3FB83
:1019F800F4F4A1FB00011C4405A3D3E90023FEF77E
:101A08007BFE20F07F40844294BF0020012038BD37
:101A18008D49FD1A07000000E00C002000CA9A3B1F
:101A2800F0B5C468636883B00546002B40D10FF059
:101A380033F900200FF054F9002108460FF042F95D
:101A48000022252108200FF0A7F9374B019301A8A0
:101A58000FF08EF9354940F25B600FF03FFA237AB8
:101A6800C3F3420262F30613237220460EF014FBFE
:101A780027682E6838460DF073FF06446A6806F139
:101A8800090101200FF04EFB0FF00EFC204609F073
:101A980003FD811C3246C9B238460DF063FF054686
:101AA80098B920460DF038FF68B9002003B0F0BDA2
:101AB80093F82C309B07BAD01D4821460FF0C0F888
:101AC8000FF0B6F9F1E700DEEFE71A4A1A491B48AA
:101AD80040F2114314F005FC194B0721A5FB030341
:101AE80001FB05310EA3D3E90023FEF705FE1549D6
:101AF8000246154814F0F5FB002585F31188BFF35D
:101B08006F8F0323184602DF104821460FF098F81C
:101B18000FF08EF96FF08B00C8E700BFAFF30080BD
:101B280000CA9A3B00000000D6BE898E5555550064
:101B3800A9FA000028B5010074B50100F0B401004D
:101B48008D49FD1ABCB6010078B50100A5FD00005D
:101B58002DE9F043C468A28A4FF6FF739A4283B016
:101B680000F0FD8006460EF0B7FC3389628B208CAE
:101B780094F82710A3831A4492B2104480B2431CED
:101B880023840023638301F03F034906E28300F1C5
:101B9800A48094F82810009304F1290004F122038A
:101BA8000DF0A6FA0546D4E90C31A26BA08BA3630D
:101BB80003FB0022E36B8A4294BF9B185B188B429D
:101BC80028BF0B46626CE363236C94F849101A44EF
:101BD80094F82C3061F306130021C4E9101294F82C
:101BE800622084F82C3012F0040200F089800FF093
:101BF80053F800200FF074F8201D0FF0B9F823896E
:101C0800A17A40F25B6043EA01410FF067F9284688
:101C18000DF0B8FE214658480FF012F8A0890FF0D1
:101C280075FA94F8482094F84900C2F3C0030021DB
:101C380002F0070200F007000FF0B2F920460EF09C
:101C4800D9FCD4F80080376840460DF089FE074477
:101C5800726807F1090100200FF064FA81460FF05D
:101C6800F7FA00200FF00EFBE36B94F8490003F13C
:101C78002F02636C012100F0070003EB42050FF00F
:101C8800C9F84D44054494F8490000F007000228BB
:101C980034D004280CBF4FF4BC73282301211D4401
:101CA8000FF0BAF828440FF0C5FAA18A03313A4672
:101CB800C9B240460DF056FE0546A8B1B37A13F0F6
:101CC80002062BD000252D4821460EF0B9FF0FF053
:101CD800AFF8284603B0BDE8F083218D04F1220255
:101CE8000DF048FA05465EE720460DF015FE00287F
:101CF8003CD10025284603B0BDE8F0831823CDE782
:101D0800D4E9130105F078FD00287FF470AF94F84A
:101D1800623043F0040384F8623068E7184A1949CE
:101D280019484FF4AC7314F0DCFA18480721A5FBE6
:101D3800000301FB05310EA3D3E90023FEF7DCFC09
:101D480013490246134814F0CCFA86F31188BFF3FE
:101D58006F8F0323184602DF6FF08B05B3E70E4839
:101D680021460EF06DFF0FF063F8C2E700DEC0E712
:101D780000CA9A3B000000009D07010089FA000094
:101D8800A4B5010074B50100F0B401008D49FD1A35
:101D9800C8B6010078B50100A9FA000002484FF45E
:101DA8002472002312F016BE000000202DE9F04F27
:101DB8001D4C2778B3B0AFB9202102A814F0A8F8B9
:101DC800031E01930CDBDFF8648098F8005002AC26
:101DD800BB46019B9B4508D127B188F8005001E01C
:101DE8000123237033B0BDE8F08F114EA1460327BD
:101DF80039F9020BFEF716FA03465DB1D6F800A0D2
:101E08005146FEF759F90B49FEF760FA5146FEF7BD
:101E180055F90346013F46F8043BE9D101250BF18A
:101E2800010B06342F46D4E79A2200209C2200207A
:101E3800680F002014AEC73E2DE9F74F434B1A78C0
:101E4800434B1B7843EA4203DBB20093414B1878BB
:101E5800002875D0DFF80091DFF80081D9F8046018
:101E6800D8F80840D9F80850D8F804702146304608
:101E7800FEF72CFA394682462846FEF727FA01462D
:101E88005046FEF719F9D8F80080D9F80090824634
:101E980041462846FEF71AFA494683462046FEF789
:101EA80015FA01465846FEF707F9494601903846A3
:101EB800FEF70CFA414683463046FEF707FA01461C
:101EC8005846FEF7F9F8514683465046FEF7FEF9A4
:101ED800019982460846FEF7F9F901465046FEF791
:101EE800EDF8594682465846FEF7F0F90146504645
:101EF800FEF7E4F818F048FE494682464046FEF7E9
:101F0800E5F9394680463046FEF7E0F90146404695
:101F1800FEF7D4F8294606462046FEF7D7F90146CB
:101F28003046FEF7CBF80146504613F0DBFD0C496E
:101F3800FEF7CCF90B49FEF7C9F918F07DFE00B29F
:101F4800009903B0BDE8F04F00F02CBC9A220020A5
:101F58009B2200209C22002030020020680F0020D5
:101F6800E12E65420000204130B514228BB00021DB
:101F78000DEB020018F08DFD0DF106030793022307
:101F88000893012306930C238DF82430264885688E
:101F980005A96B68984740BB2B89BDF9064002A983
:101FA80084FB0332CDE902320FF0C6FAF8B12346BA
:101FB80040F6B732934235DC1C4C012234F92250EA
:101FC8009D4204EB820128DC013A887804EB820107
:101FD80034F9222089785B1B091A4B43521B93FB67
:101FE800F2F31844C0B213F0E3FF0BB030BDDDE9E3
:101FF80002321B0B43EA02531213CDE902324FF0AF
:10200800FF3113F1004342F100029942904102D29C
:10201800074814F066F9029BCAE70132082ACDD1B5
:102028000020E0E76420DEE7B4AD0100B8B70100A6
:1020380058B80100044B1968002903DB034883687A
:10204800DB681847704700BF3C0200207CAD0100E8
:1020580010B40B4B9A68946984B1020205D51B69C8
:102068001B68002BB8BF80F0C060064B00F0B07250
:102078000340A446024810BC1F21604710BC7047AB
:1020880044AD010040000006F8B506460F46144668
:10209800002501221E21094813F0F9FE384613F0E5
:1020A80021FF0135054800221E2113F0F0FEB5423C
:1020B80003D0204613F016FFEBE7F8BD44AD01004E
:1020C800F0B585B0FFF772FE2B4B1F685E689D6800
:1020D80039463846FEF7FAF8314604463046FEF7E8
:1020E800F5F801462046FDF7E9FF2946044628464B
:1020F800FEF7ECF801462046FDF7E0FF18F044FD36
:102108001E4B1B78044603B31D4B1B78EBB91D49C6
:10211800FEF77AFAC8B91C492046FEF793FAA0B927
:1021280021463846FEF786F9214601903046FEF7EB
:1021380081F9214602902846FEF77CF901AC03900C
:10214800204600F0A5FB034630B150222821032089
:10215800FFF79AFF05B0F0BD94E807000B4D85E83E
:1021680007000B4A012010703C211A46FFF78CFF2C
:10217800FFF762FEEEE700BF680F00209C220020F8
:102188009A22002000002F440080A2443002002040
:102198009B22002008B51F21034813F056FE002893
:1021A800D4BF0020012008BD44AD010007B5014699
:1021B80040F2E7304FF47A72002300EBC130490C4B
:1021C800FEF79AFA02460B46CDE90001024813F0E1
:1021D800A9F903B05DF804FB5006002008B50446D1
:1021E800144813F0D7F9144813F0D4F94FF4001039
:1021F800FFF72EFF114B1B780BB100F0B5FA00F07A
:1022080045FA24B1962211460220FFF73DFFFFF759
:10221800C1FF40B9322013F065FE4FF09860FFF718
:1022280017FF14F06BF8FFF705FF142013F05AFEA0
:10223800EDE700BF50060020180600209D22002070
:1022480007B58DF80700002200230DF107010348A8
:1022580018F05AF803B05DF804FB00BFDC06002054
:1022680008B50A481F2113F0F0FD00280CDB084BC5
:102278001A68824208D018600028BDE808400CBFE0
:1022880002200120FFF7DCBF08BD00BF44AD0100FC
:10229800800F00202DE9F04F4FF0804389B0D3F82C
:1022A8000044C3F80044874A87481E2113F0FFFD05
:1022B80085484FF480321F2113F0F9FDE30361D5FF
:1022C80040F2DC5413F0D5FDA04271F100015CDB53
:1022D800102200210DEB020018F0DBFB022541F271
:1022E800883305938DF81C50784C204617F061FF11
:1022F800002852D100224FF4FA710120FFF7C4FEE2
:10230800FFF748FFDFF8C8A1724A734BCAF800000C
:1023180007466D4853604FF0004393608368DB695C
:10232800002B48D14FF0E860FFF792FE00234FF4EE
:1023380024726A4812F04EFB694800F089FA694B2A
:10234800187030B9664A0023136053604FF07E530B
:10235800936000F04BF938B1634B01221A702821C1
:1023680078220520FFF790FE6048614983681B6862
:10237800984713F01AFE064608B3502228210A206F
:10238800FFF782FE0020FFF729FFFFF703FF002871
:10239800F8D00A2013F0A6FD94E7A66804A9B3684C
:1023A80020469847534B00281860A3DB336829461A
:1023B800204698479EE7474901229847B2E74E4B87
:1023C80001221A70FFF7D0FD13F053FDCDE9020189
:1023D80000F0B4F913F04DFD80464FF47A70894649
:1023E800FFF7E4FEB3464FF0FF334FF0FF3204A986
:1023F800424811F00DFF13F03CFD9DF810300446E3
:102408000D46072BEFD8DFE803F004273443404A92
:102418005053FFF70FFEFFF7C9FCFFF70DFD029BB6
:10242800E11A039B4EF6602265EB0303914273F1B8
:10243800000303DBFFF798FDCDE9024500F0AAF998
:102448000028D0D12E4BB4EB080465EB0905A34254
:10245800A841C8DA012096E700220023CDE900232D
:1024680028484FF44042002313F05CF82646AB4658
:10247800B9E7244813F08EF80FBBA41B65EB0B05D6
:10248800B4F5487F75F10005ADDAFFF719FEAAE744
:10249800DAF80030002BA6D0002FA4D1DAE7C82044
:1024A800FFF784FEA046A9469DE74FF47A70F7E748
:1024B80000F070F9002896D100F040F993E7002762
:1024C80091E700BF0100160044AD01007CAD01009A
:1024D800800F0020740F0020A51D000000000020C0
:1024E800300200209B2200209A220020B4AD010077
:1024F8000EB001003C0200209D220020DC060020D6
:10250800BF27090018060020800000F1A040044BF6
:10251800D0F80027134043F00203C0F80037704793
:10252800F0F8FCFF10B5012A8CB00CBF6FF07F03E8
:102538006FF03F0318430DF107038DF8070002936E
:1025480002A80123CDE904030020CDE90803039381
:1025580008AB06930223CDE90A12079304480549FC
:10256800836804AA1C6806ABA0470CB010BD00BF66
:10257800ECAD010028B00100F0B403460A46197911
:10258800DB88006813430A4A0669876834689A43F7
:1025980008BF83F4402301258D4023F48012DB0714
:1025A8004CBF2C43AC4334603B68F0BC184700BFB9
:1025B8000100100010B586B001AB0293022303930B
:1025C80002AB049301238DF804008DF805100593E0
:1025D80004480549836804AA1C680023A04706B07C
:1025E80010BD00BFECAD010028B0010013B50023F9
:1025F8008DF80730224817F0DCFD18B96FF012008B
:1026080002B010BD1F4817F0D4FD0028F6D01D48B1
:1026180017F0CFFD0028F1D01B484FF4D011FFF779
:10262800ABFF00214FF4A47018F006F901220DF158
:1026380007010F20FFF776FF0028E1D19DF807304A
:10264800332BDBD101462E20FFF7B4FF8821044647
:102658002320FFF7AFFF402104432420FFF7AAFF00
:10266800802104432E20FFF7A5FF372104432020B3
:10267800FFF7A0FF204318BF6FF00400C0E700BFBA
:10268800ECAD010044AD01001CB0010008B500210B
:102698002020FFF78FFF0A484FF4B011FFF76CFFB7
:1026A80008480021FFF768FF0520FFF72DFF0220EB
:1026B800FFF72AFFBDE808400320FFF725BF00BF4A
:1026C8001CB0010030B001004B1E59425941014B6A
:1026D800197070479E2200201FB503240294044CF1
:1026E8000194BDF81840009416F06EF804B010BDBF
:1026F8009F22002010B5074C206818B102F07AFE1E
:1027080000232360044B00221A70BDE81040062005
:10271800FFF796BD840F00209E22002008B521B146
:102728000720BDE80840FFF78BBD15F05CF9024BA8
:1027380018600520F5E700BF840F002007B50123C6
:1027480000930649064B0748022202F057FB10F196
:10275800780F08BF002003B05DF804FB60B00100EB
:1027680058B0010044B0010038B5094D02F006FD2B
:10277800286860B1132115F052F932242B6833B15F
:102788004FF4A470002118F057F8013CF6D138BD79
:10279800840F0020024B1868003818BF01207047CA
:1027A800840F002030B50F4B0F4C1D6887B0207088
:1027B800C0F307206070A1708DB10C4B1B7873B10A
:1027C80000211822684618F064F9094B6946CDE9DA
:1027D800013428460323ADF80C3004F029FE07B075
:1027E80030BD00BF840F00209F2200209E220020C1
:1027F80098B0010030B5134D2B7885B0E3B9124C71
:102808001248A06217F0D5FCC0B14FF43831A06A65
:10281800216001AA16F0A9FA60B9029AE26020467E
:102828004FF40053B3FBF2F3238200F0DBF908B94D
:1028380001232B7005B030BD0020FBE76FF01200BC
:10284800F8E700BFA2220020880F0020D0AD0100C9
:102858001FB50446FFF7CEFF10B1002004B010BD2D
:10286800094810236A46012114F0B5FA1028F4D15A
:10287800064B009A9A42F0D101AB03CB206018684E
:10288800A06061600120E9E7880F0020314C414BCE
:102898001FB50023CDE9013303930B4B0093044686
:1028A800FFF7A8FF68B92068616801AB03C3A06897
:1028B80018606A4605481023012114F05BF900EA04
:1028C800E07004B010BD00BF314C414B880F0020B0
:1028D800014B1B68184700BF6802002030B504464A
:1028E80085B00D4610220021684618F0D2F8022360
:1028F8008DF802302A46044B01932146684612F0AF
:10290800ADFE05B030BD00BFD928000080B5054632
:102918000E461746984612F019FB034600F098FE3B
:10292800DFF81890044649F80030424630463946E8
:10293800A84754F8090000F02DFE00BF0800000069
:102948002DE9F047058B0446280717460CD50129C1
:102958000CBF45F0100545F02005258387F3118845
:10296800BFF36F8FBDE8F087022905F0070540F037
:102978009480204613F0E7FC052864D801A353F897
:1029880020F000BF65290000A32A00004F2A00009C
:10299800112A00002B2A00003D2A000001F007033D
:1029A8005A1F012A1FD8002221F00701062BD4F84C
:1029B800008089B2C4E9002209D1434603E0628B52
:1029C800013262831B68002BF9D141F00201218397
:1029D800204613F0B8FC4FF0000900286DD041F0F4
:1029E8002001218369E0042B0AD121F0070189B273
:1029F8002183204613F0A7FC10B141F02001218368
:102A08004FF00008C14658E02369D3F80090238BA3
:102A180023F0070343F0060323834FF000084646DC
:102A28004BE02369D3F80490238B23F0070343F08A
:102A38000403F1E72369D3F80890238B23F00703F5
:102A480043F00503E8E74FF00008C146E7E7012235
:102A580043F00803238387F31188BFF36F8F002A9D
:102A68003BD1B8F1000F4AD1B9F1000F02D02D497E
:102A78002046C847EFF31187202383F31288BFF35A
:102A88006F8F238B23F008039BB22383D9063FD58E
:102A980023F01002228303F007056669218B002EBC
:102AA800BFF67CAF0023D4F8008021F00701C4E909
:102AB800003341F0010121839946238B03F0070A73
:102AC800AA4502D0A268002AC1D1B8F1000F02D1EC
:102AD800B9F1000FDAD00022BAE7A1680029C0D006
:102AE8000D680029BDD04F68334652462046B84786
:102AF8001DB12B6829461D46F3E72B46FAE74146E8
:102B0800334652462046D8F8008013F048FCA8E720
:102B18009A067FF523AF23F02002228303F00705EE
:102B280027E700BFD363010037B504460821C06A10
:102B3800124D13F020FE00234FF6FF72ADF804305B
:102B48006368ADF800208DF80620E26819182B405C
:102B58001344181A60606846ADF8021013F063FD5C
:102B68006946204613F026FE211D204613F035FD48
:102B780063682B40A36003B030BD00BF0000FFFFB7
:102B88002DE9F7430F4681460821C06A144D13F01A
:102B9800F2FD3C68241A80463C6004EA0506B4420B
:102BA8001CD3A0B210B903B0BDE8F08308236A466D
:102BB8002146484613F0D8FC0028F4D16946A0B253
:102BC80013F0C5FD38B1BDF80230BDF804203C60F3
:102BD8002E4013441E44A4EB0804E0E70020E2E77B
:102BE8000000FFFF2DE9F047044688B000F1140704
:102BF800384617F098FBA06A8368DB689847E0625C
:102C080028B96FF01505284608B0BDE8F087A06A16
:102C18008368DB6898470368013B1F2BF1D8E3689A
:102C2800B3F5803FEDD8A06A216805AA16F09DF893
:102C38000028E6D1E568002DE3D0069BB5FBF3F24A
:102C480003FB1255002DDCD1238A012BD9D9E36A65
:102C5800009593F805804FF0FF334FF0FF32384668
:102C680011F038FBE06A082113F085FDA9460646F5
:102C7800238A1FFA85FA534544D8238A4B4500F026
:102C8800FF809A450BD1009908234246891B2046AC
:102C980013F078FC18B96946204613F09EFC694683
:102CA8002046FFF76DFF0546002840F0EB800099AD
:102CB80061604FEA11494FEA0949C4F80890A368CE
:102CC8008B420DD8082301AA204613F04DFCB8B951
:102CD80001AB13F8012B904532D101300828F8D107
:102CE800636869466FF30F032046009313F075FC81
:102CF800E36800994246204613F044FC00283CDA79
:102D08000546BFE0E1682B04891B13FA81F14246AE
:102D180008232046009113F035FC78B16946204617
:102D280013F05BFC09F1010900990823424620468B
:102D38001FFA89F913F026FC00289ED0013597E781
:102D4800A08801A913F003FD626810B9911B6160A6
:102D5800B5E7BDF808A0BDF80610E06AC4F8089009
:102D6800514413F008FD48448242A060EED1BAF104
:102D7800000FEBD06FF01C0584E05DD063684FF660
:102D8800FF7906EB0308E368CDF800801FFA88F2A4
:102D98009B1B9A421CD34FF000086168B8F1000FE2
:102DA80030D06FF30F0100912046694613F015FCEF
:102DB8000099204613F01EFC0028A1D1E368A288E0
:102DC800A3EB46039A425DD1204613F010FD97E726
:102DD800082303AA4146204613F0C6FB00288FD1DA
:102DE80003A91FFA88F013F0B2FC30B1BDF80C301B
:102DF8004B4502D1BDF810300BB1B044C3E74FF0DA
:102E08000108CAE7204613F0F5FB00287FF478AFE5
:102E18006368214AE16813400B44A3EB46036360EF
:102E28001340A3604146204613F065FDC4E7E26AFB
:102E3800A36812681344A360D4E901318B4208D90E
:102E48005B1A4246204613F09DFB0028FFF658AF58
:102E5800EDD16168E36801EB46029A42AED10E4BB0
:102E6800A06801EA03029042A8D0204613F0C2FBF2
:102E780000287FF445AF6268074B1A40A2609DE7BF
:102E88006FF02C05384611F097FA002D7FF4BBAE91
:102E98000123A374B7E600BF0000FFFF014B0360E6
:102EA8000020704710B1010010B5DFF824C086B0CB
:102EB8004FF0C874CDE904C40824029404AC01940A
:102EC800BDF82040009415F07FFC06B010BD00BF8F
:102ED8009000A00010B5084C86B024788DF81740F3
:102EE800012402940DF117040194BDF820400094C8
:102EF80015F06AFC06B010BD0106002000B589B0C7
:102F080064288DF80700C2B219D80E4B00211A7038
:102F180002A8182217F0BDFD0B4B03930DF1070310
:102F2800049302A901230020ADF8143004F080FABC
:102F380010F1800F08BF002009B05DF804FB6FF0A6
:102F48001500F9E701060020B0B1010008B50348F3
:102F5800034A0021121A13F090FF08BD2008002030
:102F6800CC2200200748084A084908B5121A13F06D
:102F780086FF0748074A0849BDE80840121A13F0B7
:102F88007EBF00BF000000202008002028BF0100ED
:102F9800000000200000002028BF010038B50546C9
:102FA8000C4699B1D1E901230F48096813F08CF94F
:102FB800D4E90423E1680D4813F086F9E1690C4867
:102FC80013F082F9A1690B4813F07EF9012D05D1A0
:102FD800EFF305810848103913F076F921462846A1
:102FE800BDE8384010F034BF8FB80100BFB8010009
:102FF800EFB80100FFB801002EB9010030BFFFF79C
:10300800FDBF00BF2DE9F0410B4EDFF8308006EB25
:103018000807CC1B054632460949204617F012FD21
:10302800A01942460021083C17F033FD2C6707F130
:103038000800BDE8F08100BF0000000004000000A7
:10304800D8AF010010B51D4C1D4813F03DF9A36A17
:10305800990130D51B4813F037F91E20A36ADA010D
:1030680003D5194813F030F91F20144CA36A1B0329
:1030780003D5164813F028F92120A36A590303D56C
:10308800134813F021F922200C4CA36A9A0303D5A4
:10309800104813F019F92320A36ADB0303D50E485F
:1030A80013F012F92420054A936A6FEA03436FEA82
:1030B8001343936210BD1D20D0E700BF00ED00E070
:1030C80042B901005BB901006FB901008AB901007A
:1030D800A9B90100CFB90100EAB9010070B5204CC7
:1030E800064620480D4613F0EFF8A36AD90435D5F3
:1030F8001D4813F0E9F81720A36A1A0503D51B48E1
:1031080013F0E2F81820164CA36A9B050FD518484F
:1031180013F0DAF8A16BA36A180407D5154813F061
:10312800D3F81EB1A36A23F40043A36219200C4C00
:10313800A36A5A0503D5104813F0C6F81A20A36AE3
:10314800DB0503D50D4813F0BFF81B20044A936A2A
:1031580043F47F43936200232B7070BD1620CBE7A6
:1031680000ED00E016BA01002DBA01003FBA0100D7
:1031780053BA01006DBA010083BA01009FBA010079
:1031880070B51F4C06461F480D4613F09DF8A36AFC
:10319800D90632D51C4813F097F81120A36A1A07EC
:1031A80003D51A4813F090F81220154CA36A9B0710
:1031B8000FD5174813F088F8616BA36A180607D56E
:1031C800144813F081F81EB1A36A23F08003A362A8
:1031D80013200B4CA36ADA0703D50F4813F074F8D1
:1031E8001420A36A064ADB0658BFA36A936A43F011
:1031F800FF03936200232B7070BD1020CEE700BF41
:1032080000ED00E0B8BA0100CFBA01003FBA0100F2
:1032180003BB01001CBB010033BB01002DE9F041D9
:103228005D4B5F688AB00446C7F30806002585F33E
:103238001188BFF36F8F02F07F43B3F17F4F06D140
:1032480002F00C03082B13D1544813F03DF8002565
:103258002C464FF00008F31E8DF80780092B00F26A
:103268008B80DFE803F00A7F837B898989898987D6
:1032780010074CBF0C460125EBE74948464E13F0B2
:1032880023F88DF80780F36A9A0704D5454813F0A8
:103298001BF800232AE0F36A002B01DA4248F6E71C
:1032A800F36A5B00F5D5414813F00EF87369A2691B
:1032B80043F480737361BFF34F8FBFF36F8F32F89E
:1032C800023C726922F480727261BFF34F8FBFF3C0
:1032D8006F8F03F47F42B2F55F4F27D1DBB2022B29
:1032E80024D12168324812F0EFFF23689DF80720A7
:1032F800CAB902AE04F1200720686168324603C2E9
:103308000834BC421646F7D1099A002D40D0C2F3C2
:10331800080121B96FEA52226FEA4222099202A9F2
:103328001846FFF73BFE0AB0BDE8F0811A4B9A6ACF
:10333800D2B22AB10DF107010120FFF721FF0FE0FA
:103348009A6A12F47F4F05D00DF107010120FFF7AB
:10335800C5FE05E09B6AB3F5803F9AD3FFF772FE7E
:103368000346C3E70DF107010020E6E70DF1070169
:103378000020ECE70F488AE70F4B1049104817F474
:10338800F87FA6F1100208BF194612F09DFF80E7EA
:103398006FF30802C2E700BF00ED00E081BB010047
:1033A800ADBB0100C5BB0100E7BB0100F6BB0100D6
:1033B80016BC010033BC010053BB010068BB01000F
:1033C80058BC0100044B5A6942F010025A615A690C
:1033D80022F008025A61704700ED00E0EFF3088020
:1033E800EFF3098101B57246FFF718FF01BD00BF71
:1033F8000B4880F308880FF0E9FC202080F311883F
:1034080008484FF40061401880F30988EFF31480EE
:103418000221084380F31488BFF36F8F13F040FD37
:1034280060420020603100201EF0040F0CBFEFF353
:103438000880EFF30980816911F8021C0229FFD086
:1034480001B5724613F01DFD01BD00BF40B2002852
:1034580007DB044A4109012300F01F00834042F8BA
:103468002130704700E100E040B200280CDB43093E
:10347800064900F01F0020330122824041F8232032
:10348800BFF34F8FBFF36F8F704700BF00E100E0BD
:10349800054B420900F01F0053F82220012303FACC
:1034A80000F01040704700BF00E100E040B2002883
:1034B800A8BF00F1604001F10101B8BF064B4FEA17
:1034C8004111ACBF00F5614000F00F00C9B2B4BFB4
:1034D800195480F80013704714ED00E0044B054AB6
:1034E80023F07F039360BFF34F8FBFF36F8F704755
:1034F8000000000000ED00E042F8203C009B42F88C
:103508001C3C0A49019B42F8183C029B42F8143CB7
:1035180021F001014FF0807342F8043C42F8081C86
:103528000023203A02654367704700BF1529000051
:1035380000B50B4B98600B4B1546026F1A600E4690
:103548002C4686F309880020034B98472046002123
:1035580000220023014C2047C56E010015290000F8
:103568004C220020B80F0020014B10221A6170472E
:1035780000ED00E0054B5A699B689A421FBF044A58
:10358800536843F080535360704700BF4C220020BB
:1035980000ED00E0084B9B6883420BD1EFF30583F5
:1035A80043B1064B5A6842F080525A605A6A22F474
:1035B80000425A6211F0D0BC4C22002000ED00E01D
:1035C80011498A684FF030001044EFF3098C80E805
:1035D800F01F202080F31288BFF36F8F0B4F4FF03E
:1035E80000664A698A603E60106F094C2060506F1F
:1035F8000023536780F3118802F1300090E8F01F30
:103608008CF30988704700004C22002004ED00E08C
:10361800B80F0020044800232021C21801331E2BB4
:1036280082F80013F9D1704700E100E008B5EFF324
:103638000583064A103B02EBC30152F83300496880
:103648008847BDE80840FFF795BF00BF08AE0100F6
:103658000148006870470000B80F0020024B034A79
:103668000348012100F066B8006000200000002037
:1036780000B20100084AC2F898000B6823F01F0343
:10368800034343F01003C2F89C308B6843F00103F6
:10369800C2F8A030704700BF00ED00E02DE9F0430C
:1036A800DFF8608085B00E461F4604464FF00009DB
:1036B800B14523DA6068D8B13FB1411E08421BD139
:1036C8001F2819D92368194216D12368019313F0CA
:1036D80018FCA36803430393D8F89050C5F3072553
:1036E800D0B2013DA84207D801A9FFF7C3FF421C89
:1036F80009F101090C34DBE76FF01502104605B03B
:10370800BDE8F08300ED00E0044B0522C3F89420E7
:10371800BFF34F8FBFF36F8F704700BF00ED00E01E
:10372800BFF35F8F024B0022C3F89420704700BF9D
:1037380000ED00E010B5034C01232278FFF7AEFF3F
:10374800207010BDA32200202DE9F0435A4B5B4D99
:10375800D3F890302C68C3F307239C4285B000F25D
:10376800A780FFF7DDFF00200C2684421AD1544EB3
:10377800DFF8449134706846FFF790FB514C524D86
:1037880080460027B84514D133784B490020D1F83A
:103798009020C2F307229342C0F28480FFF7B4FF5F
:1037A800002045E0696806FB0011FFF763FF013060
:1037B800DBE7009800EB07114FEA071CCB682340B2
:1037C800B3F5000F4DD00AD8B3F5001F33D0B3F5C9
:1037D800800F3BD0B3F5801F13D00137D2E7B3F188
:1037E800007F47D0B3F1805F4DD0B3F1807FF4D133
:1037F80050F80C3088684A6813F083FB40F08870F2
:1038080009E050F80C3088684A6813F07AFB40F0F9
:10381800885040F43020CDE901230390D9F8903046
:103828003078C3F30723013B984234D96FF0150071
:1038380005B0BDE8F08350F80C3088684A6813F08A
:1038480060FB40F0885040F40020E4E750F80C306A
:1038580088684A6813F055FB40F0007040F4003067
:10386800D9E750F80C3088684A6813F04AFB40F0F2
:103878008270D0E750F80C3088684A6813F041FB32
:1038880040F48020C7E750F80C3088684A6813F085
:1038980038FB2843BFE701A9FFF7ECFE3378013373
:1038A80033709AE7C1F89830C1F8A00001336EE789
:1038B8004FF0FF30BCE700BF00ED00E00CB20100A4
:1038C800A32200200000F0FF0000021108B50649FD
:1038D800064821F00701C1F1005202F5C04212F07A
:1038E800B0FC002008BD00BFFF4F0020BC0F002027
:1038F80070B54169867A0B4D044659B1437ADB07A6
:1039080006D4242303FB0653DB691B689B6898478E
:10391800002363612420214600FB0650BDE8704067
:1039280016F0B5BD24070020024B242202FB00300C
:10393800704700BF24070020827A064B242101FB30
:1039480002331A6A1B7D1B33801A23F00303B0FB72
:10395800F3F070472407002038B5074B827A2424F7
:1039680004FB0233DB69D3E901240C601568FFF717
:10397800E3FF04FB005038BD240700202DE9F04385
:1039880085B005466846039190461C4617F001F835
:10399800DDE90067EFF31189202383F31288BFF371
:1039A8006F8F6B8A002B41D02A8A9A4225D9002230
:1039B8000023284610F050FD0446F0B189F3118821
:1039C800BFF36F8F039B002B41D032463B466846BE
:1039D80017F004F8A27A264B242101FB0233204673
:1039E800DB691B6803A91D68DDE90023A84760613E
:1039F80070BB2046FFF77CFF24E0698A4B1E6B8270
:103A080089F31188BFF36F8F2B7D2A8A2C6A1B33A9
:103A180023F00303521A02FB0344154B154AEB1A11
:103A28009B105343A3722B7DE372CBE789F3118874
:103A3800BFF36F8F23464246284610F00DFD04461B
:103A48000028BFD10024204605B0BDE8F08363619B
:103A5800012300252381039B6382E27A656029465E
:103A680004F1180017F015F863692582E360EAE7A6
:103A780024070020398EE338F8B5124D0024242697
:103A880000B9F8BD00F108024768BFF35B8F52E840
:103A9800003F591E42E8001CBCF1000FF7D1BFF3EC
:103AA8005B8FDBB2012BECD1837AC46006FB035336
:103AB80044609B6913B198473846E1E7FFF718FF60
:103AC800FAE700BF2407002048B1054B054A1B68E8
:103AD800B3FBF2F35843044B43F001031847704714
:103AE800DC05002040420F0000B0010030B503782B
:103AF800012B11D0022B21D06BB9154B0A4603F1CB
:103B0800100453F8045B42F8045BA342F9D14388DC
:103B18001A0A8A70CB7030BD0D4B0A4603F11004A7
:103B280053F8045B42F8045BA342F9D143681A0CCA
:103B3800180E4A700870C3F30722EAE700F1100371
:103B4800013913F8012901F8012F9842F9D1E2E768
:103B5800A9BE010010B513F02BFB16F0A8FD044612
:103B680008B911F02FF9BFF35B8F064B1B68BFF341
:103B78005B8F0BB10A2098471CB9BDE8104011F0C3
:103B880035B910BDC80F002038B50446084813F0F1
:103B9800DAF9054648B1631EDBB21F2B96BF054A0A
:103BA8000021D15C0C3013F04DFA284638BD00BF17
:103BB800D8070020B9BE01000F2810B50CD80D2871
:103BC8000CD90A4813F0BFF9044618B104210C3087
:103BD80013F038FA204610BD1328F2D009B1044872
:103BE800F0E7BDE810400220FFF7CEBFFC07002039
:103BF8006C07002038B5C5682B7893B9B5F8014033
:103C08000F21204601F0E4FCEB78054650B90A4A3A
:103C1800118831B96FEA04506FEA10501080074AD2
:103C2800137038BD4372012101F03AFC2846BDE803
:103C3800384001F0DFBB00BF80220020A422002012
:103C480010B586B003AB00240093074907480594D4
:103C58004FF0FF334FF48062CDE9034410F01CFEAF
:103C6800204606B010BD00BFD0220020200800204A
:103C780010B5084C0146062294F86F0001F044FF85
:103C880038B994F86F000449BDE81040052201F0E6
:103C98003BBF10BD300000208FBE010010B50121D0
:103CA80004460C3013F0EFF92146034A0078BDE8CA
:103CB8001040002313F03DBB04B3010010B50121EF
:103CC80004460C3013F0DFF92146034A0078BDE8BA
:103CD8001040062313F02DBBD4B2010070B5314853
:103CE80013F04AF9044600285AD000F10C0528467A
:103CF80013F0D1F9022805D004282FD02046FFF769
:103D0800BBFE21E0238A032BF8D90421284613F0AF
:103D1800BAF9FF22438806882276228AC6F30B0066
:103D28009A426083EAD10F2101F052FC054600282F
:103D3800E4D001F069FC320B20762146284613F0C6
:103D480002FE284601F056FB174BD3F834313BB33B
:103D5800BDE870401549164816F059BC284602219E
:103D680013F091F9054600783E2812D013F07DFA39
:103D780010F002060DD10F4A0F49104840F69A4339
:103D880012F0AFFA86F31188BFF36F8F032318463A
:103D980002DF0B4A28780423214613F0CAFAADE75C
:103DA80070BD00BF64010020300000202403002003
:103DB800C00800207BBC0100AFBC0100DDBC0100D5
:103DC800B4B2010010B5012104460C3013F05BF9C0
:103DD8002146034A0078BDE81040022313F0A9BA2F
:103DE800A4B201002DE9F0470C4610F0EBFFE5689E
:103DF8002B78022B67D0042B05D02046FFF73CFE1A
:103E08006FF0150408E0B4F81080B8F1020F08D874
:103E18002046FFF731FE002410F0E8FF2046BDE8F9
:103E2800F08768783E2809D1B8F1030FF0D0EB7815
:103E3800012B01D00A2B46D1032704E013F015FA11
:103E48000746F8073FD504F10C0601213046D4F89F
:103E580014A013F010F90221304613F014F981462A
:103E680000783E2807D1E3681B78012B01D00A2B84
:103E780006D1032614E013F0F8F9C10706460FD45B
:103E8800174A1849184841F2681312F02AFA002311
:103E980083F31188BFF36F8F0323184602DF0226CE
:103EA800124A99F800000623214613F042FAB20795
:103EB80012D56369A4F81080A5EB0A0513FA85F5F5
:103EC800E560BB07A7D52146094813F040F8094922
:103ED800094816F09CFB9EE72046FFF7CDFDF0E76A
:103EE8007BBC0100FABC0100DDBC010074B201001A
:103EF8006401002024030020C00800202DE9F047B9
:103F0800884616468246002870D0BFF35B8FDFF8DC
:103F1800E090002359E8004F49E80032002AF9D11F
:103F2800BFF35B8F002C61D02046FFF705FD314DB4
:103F38000C2303FB005027464388534511D0BFF399
:103F48005B8F59E8003F49E80072002AF9D1BFF3B6
:103F58005B8F002B4AD01F463846BDE8F047FFF775
:103F68008BBDA64208D0204612F0E8FF328AF168DD
:103F780004F10C0013F05DF82046FFF7DDFC0C2679
:103F880006FB00504368ABB1B8F1000F12D12046D0
:103F9800FFF7D2FC06FB005001214268536803F08A
:103FA8001F00814010685B0900EB8300137ACBB1D6
:103FB80013F08EF92046FFF7BFFC0C2606FB0050D5
:103FC8008368002BC8D02046FFF7B6FC704305F87D
:103FD80000802046FFF7B0FC06FB0055A86810F0EB
:103FE80071FAB9E7C94313F0BBF9E3E7BDE8F08715
:103FF80060010020CC0F0020094BBFF35B8F1A68CB
:10400800BFF35B8F02F00B02BFF35B8F53E8001F17
:1040180043E800200028F9D1BFF35B8F704700BF49
:104028000401002010B5C1E900239DF808300B7287
:104038000C46FFF781FC034B0C2202FB00335C604B
:1040480010BD00BFCC0F0020F8B502460B46104843
:1040580012F079FF0446C0B104210C3012F0D8FFE9
:104068002046FFF769FC0B4D0C2707FB0050002684
:1040780046802046FFF760FC07FB0050866020461C
:10408800FFF75AFC07FB00556E602046F8BD00BFDD
:10409800B4070020CC0F0020034B0146D3F84C0195
:1040A80082689268104700BF300000200148042150
:1040B80013F00EB904010020004870477CB80100D5
:1040C8000149024816F0A3BA140300202008002072
:1040D80070B505460C4639B1CB684A699B1A032B63
:1040E8000ED86FF0150509E04FF0FF304FF0FF31A3
:1040F800FFF7AAFF044618B96FF06805284670BD97
:104108002046FFF719FC144B0C2202FB0033A618BB
:10411800032130465D8012F09DFF0580238A033B12
:1041280083700121304612F09DFF40F635439D42D1
:1041380009D12046FFF7B0FF05460028DED020460B
:10414800FFF79AFCDAE70548214616F095F90025AD
:10415800FFF7B6FFD2E700BFCC0F00206C010020AC
:104168002DE9F043064685B017460C4669B94FF06D
:10417800FF304FF0FF31FFF767FF044658B96FF083
:104188006805284605B0BDE8F083887AFFF7CCFBC0
:10419800304B834258D101220021684616F093F92A
:1041A8002046FFF7C9FBDFF8B0900C2303FB009013
:1041B800C0F808D0204612F0F5FE01463046FFF759
:1041C80087FF054618B12046FFF756FCD9E74FF49C
:1041D800A0220023684610F0A9F9804690B14FF458
:1041E800F1731E4A1E491F4812F07BF81E484246CA
:1041F800314612F076F885F31188BFF36F8F0323E9
:10420800184602DF2046FFF797FB0C23584319F89E
:104218000060AEB12046093EFFF72EFC092E0CD8EF
:10422800DFE806F0050B0B08150B0B0B0B126FF0F4
:104238006E05A6E76FF00C05A3E76FF00405A0E78D
:10424800002FC0D03C609CE76FF0150599E76FF030
:104258000B0596E7B4070020CC0F00207BBC0100BB
:1042680013BD0100DDBC01001CBD01002DE9F043B8
:104278004F4BB0F80180198848F4704291424FF0D2
:10428800000685B002BF1E804A4B1E78C378012BFA
:1042980008BF494B00F10404054620460CBF93F8BB
:1042A8006F904FF0000912F07FFF02AF2146B0B1C6
:1042B800384612F06EFFD5F81130CDF80130B5F858
:1042C8001530ADF805304FF00109EB78012B1BD004
:1042D8001321404613F056F905B0BDE8F08348466F
:1042E80013F02DFA0346006802909A889B79686853
:1042F800BA80BB71A288A37995F804900090ADF8B4
:1043080004208DF80630E0E73846FFF7B1FC044694
:104318000028DDD00346B5F8012023F8702B029859
:10432800BA79B98820679A719980B5F8173040F240
:10433800E2425343C4F88830B5F81930A4F89030F5
:10434800B5F81B30A4F89230EB78E3700022012B0B
:1043580062721CD18DF80090BDF804209DF80630DB
:104368000098A4F87B2084F87D30C4F8770000F02A
:1043780041FD237A1049C3EBC3035A18CB58C4F83C
:104388007E309388A4F88230937984F884300721AA
:10439800204601F085F826B166720121204601F019
:1043A8007FF8204601F062F9204601F023F893E7F0
:1043B80080220020A42200203000002000B5C3681D
:1043C8001A7889B032B13C2A32D109B05DF804EBD1
:1043D80013F09CB88DF80020B3F80120ADF8012047
:1043E800DA788DF80320B3F80B20ADF81720B3F86E
:1043F8000D20ADF81920B3F80F20ADF81B205A7C1A
:104408008DF81D20586801901A899B7A8DF80A301A
:10441800094BADF8082068461A689B88CDF80B2030
:10442800ADF80F30CDF81120ADF81530FFF71EFFAD
:1044380009B05DF804FB00BFA3BE0100F7B5002278
:10444800114640F60340FFF78BFE0446002853D17F
:10445800FFF7D2FD214601AA41F20300FFF780FED3
:104468000446002848D1019ABD4DD168D1F8010011
:10447800D1F8051005F1780303C31046FFF7FCFADD
:10448800214601AA41F20100FFF76AFE044698BBE3
:104498000198C3685A7885F870205A88A5F8722060
:1044A8001A7985F87120B3F80720A5F87420B3F8B5
:1044B8000530A5F87630FFF7DFFA214601AA41F268
:1044C8000200FFF74DFE0446B0B9019FFA6805F1F6
:1044D8008006531C413218685968344603C40833AF
:1044E80093422646F7D13846FFF7C6FA95F87C304E
:1044F8005E0604D46FF01204204603B0F0BD01AA92
:10450800002142F20300FFF72BFE04460028F3D1F6
:10451800019B944EDA68D2F80100D2F8051003C660
:104528001846FFF7A9FA214601AA42F20200FFF74E
:1045380017FE04460028DFD1019CE368B3F8012088
:1045480091B249B1D97839B1A5F8FC20DA78114689
:1045580006F1200015F0B7FF2046FFF78DFA95F811
:104568007C601F2316F02006A5F8103119D14FF0F2
:10457800FF304FF0FF31FFF767FD0446002800F0D9
:10458800EC8002210C3012F04EFD012303704670BE
:104598002146324640F66D40FFF7E2FD044600280A
:1045A800AAD195F89C301C0712D501AA002142F225
:1045B8001C00FFF7D5FD044600289DD10198C3686B
:1045C800D3F80120D3F80530C5E93823FFF754FAAA
:1045D8004FF0FF304FF0FF31FFF736FD044600285B
:1045E80000F0BB8008210C3012F01DFD95F8D83082
:1045F80095F8D92013F0020F14BF2F230F2312F0C0
:10460800090F18BF43F40063002203701B0A4370AC
:104618008270C270027142718271C271214642F287
:104628000100FFF79DFD044600287FF465AF95F86B
:104638007C30B5F8FC1098067BD4C9B901AA41F2C0
:104648000500FFF78DFD044600287FF455AFB5F847
:10465800FC30019C4BB9E368B3F80120A5F8FC20B5
:104668009A884148114615F02EFF2046FFF704FAB4
:104678004FF0FF304FF0FF31FFF7E6FC044600280B
:104688006BD008210C3012F0CEFC10230370882365
:10469800437002230022C37020238270027142718A
:1046A8008271C371214640F60140FFF759FD044667
:1046B80000287FF421AF014601AA4FF60140FFF719
:1046C8004FFD044620BB0198FFF7D6F9214601AA01
:1046D8004FF60240FFF744FD0446C8B90198C36885
:1046E800B3F80130A5F8C130FFF7C6F995F8C13025
:1046F8005A070DD501AA21464FF60340FFF730FDB2
:1047080030B90198C3685B7885F8C030FFF7B4F911
:10471800EB799BB900F02AFB044600287FF4ECAE45
:1047280001F0C8FA044600287FF4E6AEFFF7BEFCA5
:10473800E2E600299CD16FF00404DDE62E78002E15
:10474800E8D195F8C1309B0624D54FF0FF304FF0E3
:10475800FF31FFF779FC044640B96FF06804CBE6F7
:1047680030000020080100203001002006210C3014
:1047780012F059FCD5F801300360084B9B88838000
:10478800214632464FF60640FFF7EAFC0446002869
:10479800C0D0B1E66FF08504AEE600BF310000205E
:1047A80010B5FFF74BFE034B1B6813B1BDE8104073
:1047B800184710BDE40F002073B5254D0646D5F8FF
:1047C8004C0115F0F6FC00283BD06FF0020105F112
:1047D800D40012F0C5FD012112F07AFD10EA01049F
:1047E80032D11C4B1E600A4605F5907015F06BFE21
:1047F80005F59E7015F012FE174815F033FF17499E
:10480800154800946FF007034FF4966210F044F8CF
:104818001349114815F051FFD5F84C011149836827
:104828001B689847044648B926B902B0BDE87040ED
:10483800FFF704BE05F1C40010F028F8204602B0C6
:1048480070BD6FF01204F9E76FF07704F6E700BF68
:1048580030000020E40F0020C0080020D0260020EF
:1048680061BD0100ED3D000038B5032104460C3060
:1048780012F009FC0346B0F8010040F635429042B8
:104888000DD01D78E36822461978FFF737FB35B15C
:1048980003480FF017FEBDE83840FFF711BC38BDDC
:1048A8005001002038B510F08DFA284DD5F83C316C
:1048B800002B48D00022002305F590700FF036FE3B
:1048C800002840D10022002305F59E700FF0C4FD9A
:1048D800044668B91E4A1F491F4840F6AA4311F00A
:1048E80000FD84F31188BFF36F8F0323184602DF9E
:1048F800D5F8300120B1FFF7BFF80023C5F83031F3
:10490800204612F04FFBC5F830012046FFF7C4FBE4
:1049180098B112480FF0D6FD2046FFF70DF8104B5E
:104928000C2202FB00301F2140882246FFF7E6FADE
:104938002046FFF7A1F8FFF7C3FBFFF7C1FBBDE86F
:10494800384010F053BA00F0A1FEF8E7300000201C
:104958007BBC01006ABD0100DDBC010050010020E4
:10496800CC0F002038B5042104460C3012F08BFB24
:104978004578017840882246FFF7C0FA35B10448E7
:104988000FF0A0FDBDE83840FFF79ABB38BD00BF67
:104998005001002070B54FF0FF320D464FF0FF3345
:1049A80000210646FFF708F9044660B90A4A0B4990
:1049B8000B481A2311F095FC84F31188BFF36F8F0D
:1049C8000323184602DF022104F10C0012F02BFB2E
:1049D80006704570204670BD6EBD01006ABD0100BD
:1049E800DDBC0100F8B50A4DEF7906460024E3B2B4
:1049F8009F4202D86FF0010007E02946304612F0C6
:104A080096FE0735631C08B12046F8BD1C46EEE744
:104A18003000002070B5144E06223146044616F0C8
:104A280040F8E0B14FF0FF304FF0FF31FFF70CFBDB
:104A38000546A8B1062221460C3012F0FAFA0022E7
:104A4800294642F20500FFF78BFB40B9334622683E
:104A580043F86929A288B280012283F8682070BDD2
:104A68006FF06800FBE700BF9900002073B50446AB
:104A78000D4689B11749284612F059FE60B9164A01
:104A88002968C4EBC404A3181151AA889A80AA798A
:104A98009A71002002B070BD6E46304612F06BFB72
:104AA8000028F7D13046FFF79DFF0028F5DA0A4ABB
:104AB8000098B179C4EBC404A3181051B088988049
:104AC8009971002DE5D012592A609A88AA809B799D
:104AD800AB71DEE796BE01003000002070B50446D9
:104AE80011B16FF0150070BDF0B1234912F01FFE2F
:104AF800D0B92046FFF776FF002837DA237863B964
:104B08001E4AD37993BB20681060A179A08891715F
:104B180001219080D1711846E5E7012BE1D1A379F5
:104B280003F0C003C02BDCD1144DEB79012B20D04E
:104B3800BFF35B8FD5F8D430BFF35B8FDB0707D4A7
:104B4800002CCED00C49204612F0F1FD0028C8D127
:104B5800EE792146731C3046EB71FFF787FF08B9E1
:104B68003046C0E7EB79013BEB71BCE76FF07700AB
:104B7800B9E76FF00B00B6E796BE010030000020E1
:104B88002DE9F3410446D8B101AA002141F20900F8
:104B9800FFF7E6FA054698B9019E1249D6F80C8047
:104BA80008F101070622384615F07BFF28B10E49A7
:104BB8000622384615F075FF30B93046FEF75CFF1F
:104BC800002002B0BDE8F081D8F80130C4F8013007
:104BD800BB88A4F8053030462570FEF74DFF01204C
:104BE800EFE700BFA3BE01009DBE010007B5684600
:104BF800FFF7C6FF044BD87118B169460020FFF7CC
:104C080035FF03B05DF804FB30000020F0B5294DF6
:104C1800EE7989B0002E46D195F8C230DB0722D54F
:104C28006A4631464FF60940FFF79AFAD8B9DDF8D7
:104C380000C0DCF80C406378012B1E4628BF012613
:104C480073B1A31C02AA123418685968174603C71F
:104C58000833A3423A46F7D1186838609B88BB806E
:104C68006046FEF709FFEE71002416260127EB794E
:104C7800E0B2984202D3B3B1002012E008AB06FBC1
:104C88000033694653F8182C33F8143CCDF801204A
:104C9800ADF805308DF80070FFF7E8FE0134002804
:104CA800E5D009B0F0BD0021084609B0BDE8F040E4
:104CB800FFF714BF300000202DE9F0411D460E46D5
:104CC80017460346002849D0002D47D00A0307D5C8
:104CD8004C0743D412F040FD10BB01232B701FE09A
:104CE800B10704781ED020492FB1B20603D591F838
:104CF800D820500635D5C4EBC40411F80480B8F1A7
:104D0800010F08D101342144184612F01DFD38B9AD
:104D180085F8008002E0B8F1000FF9D0A7B90020AB
:104D2800BDE8F081720716D50F49C4EBC4040F5DC6
:104D3800012F07D10134214412F006FD0028EFD1DC
:104D48002F7001E0002FFBD0B306E8D52B7843F095
:104D580002032B70E3E712F0FFFCBEE76FF01500CB
:104D6800DEE76FF08500DBE73000002010B50A4C65
:104D7800E3790BB1002010BDFFF738FF0028FAD106
:104D8800E379002BF6D1FFF741FF0028F3D1601C2F
:104D9800BDE81040FFF73EBE30000020F7B5CDE972
:104DA8000001694642F208009DF8207016461D462B
:104DB80012F0EDFC044668B97FB9BFF35B8F0C4B6A
:104DC80053E8001F41F0040143E80012002AF7D11C
:104DD800BFF35B8F204603B0F0BD694642F209007D
:104DE800CDE9006512F0D3FC0028E6D00446F1E7CF
:104DF8005800002000487047480000202DE9F04F77
:104E0800D0F81090DFF878A289B0B9F1000405460F
:104E180002919346039318BF0124BFF35B8FDAF81E
:104E28000030BFF35B8F5A0740F1858146687305F0
:104E38000CD56FF01504029B002240F20110934537
:104E480040F08281204609B0BDE8F08FD0F810808C
:104E5800B8F1000F01D0B707EBD08A4F2878FB795B
:104E68008342E6D9C0EBC00087490722384415F0D1
:104E780018FE0028DDD0B00706D197F87030082B4F
:104E880002D8AB689F2BD4D916F0300F74D0B8F184
:104E9800000FCED0F10672D406F46036B6F5603F46
:104EA800C7D0284612F06FFC80460028C1D0774E44
:104EB800BFF35B8F3268BFF35B8FC2F30023D20569
:104EC80000F13C816A68CDE90533CDF81B30AB6849
:104ED800ADF8103012F4004FEB68ADF8123014BF83
:104EE80006230723D00348BF03F00503910348BFF7
:104EF80003F0FB038DF81D30BFF35B8F5AE8003FCA
:104F080023F480734AE80032002AF7D1BFF35B8F9D
:104F18002B783B7687F86F30224669685C480DF13C
:104F28001503FFF7C9FE0446002884D1594BB9F18F
:104F3800000F30D02A6911684AF8B31C918899800B
:104F480092799A716B689A0727D0B9F1000F2BD024
:104F580013F0100F0CBF012304238DF814302B69B4
:104F68001A68CDF816209A88ADF81A209B798DF822
:104F78001C304FF000081AE0B8F1000F8CD1D5E9C9
:104F880002239A423FF655AF1F2A7FF652AFB3F578
:104F9800804F81D94DE73C4ACDE79B0502D4039B5E
:104FA800002B37D0022300E04B468DF814304FF029
:104FB800FF304FF0FF31FFF747F80446002800F0B4
:104FC800C0800F2204A90C3012F033F821460022C9
:104FD80042F20600FFF7C4F8044600287FF42BAF1E
:104FE800B9F1000F1AD0686810F0030022D1074603
:104FF8002748012112F025FC044600284ED0002F36
:105008003FF419AF3846002100F04AFA384600F05C
:10501800F1F910E703238DF81430AAE7129B039ADD
:105028000298CDF800805946FFF7B8FE04460028DC
:10503800D9D000E73C7E1449164887F86F4007220C
:1050480015F02FFD60B91449204600F019FD0746F8
:1050580010B96FF00B04EEE6052100F021FAC7E75E
:105068000C49204612F01BFD00287FF4E2AE387E82
:10507800084900F005FD07460028EAD00621ECE7BC
:10508800040100203000002096BE010058000020D6
:1050980048000020510000208FBE010017B138469B
:1050A80000F0A8F96B68BFF35B8F9F0728D056E81C
:1050B800003F43F4007346E80032002AF7D1BFF3FB
:1050C8005B8FBFF35B8FB8F1000F22D056E8003F2B
:1050D80043F4806346E80032002AF7D1BFF35B8FC0
:1050E8006B68BFF35B8F58071CD556E8003F43F445
:1050F800805346E80032002AF7D1BFF35B8F9AE667
:1051080056E8003F23F4007346E80032002AD6D060
:10511800F6E756E8003F23F4806346E80032002AA9
:10512800DCD0F6E756E8003F23F4805346E8003227
:10513800002AE2D0F6E76FF00A047CE66FF0770405
:1051480079E66FF0680476E61988814204D15968D7
:1051580011B10978C90702D4013208336FE605494D
:10516800054815F085FA4FF47022002302480FF025
:1051780031FC67E69D7801006000002010B51B4CEB
:10518800204612F084FBBFF35B8F2369BFF35B8F6C
:10519800DA05C3F3002027D5BFF35B8F2369BFF37C
:1051A8005B8F9B0516D504F109001149072215F0FC
:1051B80078FC034614F8180993B90E49052200F043
:1051C800A3FC044630B10021417200F069F9204681
:1051D80000F010F9BDE810400448002112F031BB7E
:1051E800062204F12101EAE710BD00BF48000020B3
:1051F80096BE01008FBE010070B50C4B1C680546B9
:1052080044B154F8143C143C13B1697A28469847C1
:105218006469F5E7064C074EB44200D370BD2368B5
:1052280013B1697A284698471834F5E71C1000200E
:10523800A0AF0100B8AF010010B50446FEF77CFB33
:10524800044901EB0011204611F0EFFFBDE81040C2
:10525800FEF736BFE80F002070B5D1E901560022ED
:105268000446C1E90122064815F006F93DB1314668
:1052780020462B466FF06D02BDE87040184770BDA0
:105288001407002070B505460F48002200230FF0D0
:105298004DF9B8B90D4B1C6834B154F80C3C143CAA
:1052A80003B198476469F7E7094C0A4EB44204D33E
:1052B8002846BDE870400FF0E9BAA36803B19847E3
:1052C8001834F3E770BD00BF040700201C1000204D
:1052D800A0AF0100B8AF01002DE9F0410446202736
:1052E8000025EFF3118287F31288BFF36F8FE1690E
:1052F80029B1206A0B68E361814208BF236282F307
:105308001188BFF36F8F71B1D1E901680748C1E90E
:10531800015515F0B1F81EB1002241462046B047AC
:10532800FEF7CEFEDDE7BDE8F08100BF14070020E0
:105338000448B0F8FC30002B00F5807008BF00204E
:10534800704700BF3000002030B50446FEF780F9F2
:105358000D4A0D460D490858D2F88010884289B088
:1053680005D1204609B0BDE83040FFF7B5BF243469
:105378002146104615F04BF91DB16946204615F037
:1053880056F909B030BD00BF280E00200800000003
:1053980038B5002204468A4202D10024204638BD8E
:1053A80004F1C8030120BFF35B8F53E8005F002DB1
:1053B80004D143E8000CBCF1000FF6D1BFF35B8FBA
:1053C80002D0D0340244E6E7002CE6D0C8220021FF
:1053D800204615F05EFB04F14000044915F048F939
:1053E800034904F1240015F0F6F8D7E7C15B000083
:1053F8000179010008B500F1C803BFF35B8F53E8DA
:10540800002F013A43E800210029F8D1BFF35B8F50
:10541800AAB90B4B984212D303F1D00290420ED294
:10542800C01AD023B0FBF3F203FB120038B90548C9
:105438000FF048F8BDE8084003480FF027BA08BD48
:1054480060090020040700204403002010B504462A
:1054580012F0C9FA0FF0B6FC104AD2F8141104F190
:10546800BC0361B9C4F8BC10D2F8181159B9C2E923
:1054780045330FF0BBFCBDE81040FEF721BE8B4260
:1054880005D00968EDE70B60C2F81831F1E70FF0B5
:10549800ADFC2046FFF7AEFFEDE700BF300000206F
:1054A80070B5857A8D42044613D081720DB912F019
:1054B8009AFAA37A012B09D1344D05F580766169F2
:1054C800002950D1BDE87040FEF7FABD072B01D086
:1054D800ABB170BD0023C4E90D33E378012BF8D1DB
:1054E800A378012B04BF032384F8983004F140000B
:1054F8004FF42032BDE8704000230FF037BA082D72
:10550800E7D801A353F825F0DB5400003555000017
:105518005B550000655500006555000065550000A5
:105528005B550000DB540000DB54000004F140052B
:10553800284615F0A9F820460121FFF705FF204667
:1055480012F0F8F928460022BDE8704000230FF059
:1055580041BA637A13B12046FFF74EFE2046BDE8F4
:105568007040FFF747BFA2690B686361914208BFAB
:10557800A3612046FFF770FEB5F8FC30002B14BF7E
:10558800304600200EF09EFF99E700BF3000002053
:10559800F8B5074609480D46164612F024FA04469F
:1055A80050B183781F4203D1BDE8F840FFF722BF0E
:1055B8003146A8472046F7E7F8BD00BF600900203C
:1055C800024900220120FFF7E3BF00BFC1780100B4
:1055D80038B505460B480C4612F005FA034670B17B
:1055E800827A012A02D0073A012A06D81A88AA42E2
:1055F80002D19A78144203D11846FFF7FBFE002324
:10560800184638BD60090020034BC01A034B00112F
:105618005843C0B2704700BF60090020C54EECC4B3
:1056280070B51C46144305460E4608D0FEF710F820
:105638000B4908580B49D1F88010884201D1002243
:1056480013460949002D14BF2846084611F07BFC73
:10565800044618B1711D0C3011F0DAFC204670BDFB
:1056680008000000280E00202407002010B504467A
:1056780005480FF00BF9204600F0D4FB2046BDE8A2
:105688001040FFF7B9BD00BF340300202DE9F04FEB
:1056980087B0002303930593AD4B5A8A32B1AD4DC1
:1056A800D5F8144134B907B0BDE8F08F1B68002B5A
:1056B800F5D1F8E754F8BC3903B1BC3BA64900263C
:1056C80001E01C461346B5F8FC20002A00F03D8195
:1056D800D5F808214AB904F1BC06002BE3D0D3F869
:1056E800BC20002AEDD0BC3AEBE70A68002AF2D0C9
:1056F800D4F8A820002AEED0D4F8AC20002AEAD0AA
:10570800D4F8B020002AE6D0A37A072B68D1204627
:105718009047002864D0BFF35B8FD4F8C030BFF344
:105728005B8F022B5CDC204612F05DF904460028F2
:10573800B9D0A37A072B40F0FF80D4F8A830B5F889
:10574800FC1004AA204698470746002800F0D48099
:10575800B5F8FC20049B9A4206D30146D4F8AC6005
:1057680005AB03AA2046B047059B01933B8ADDF8A9
:105778000C90002B00F0E3803846DDF810A011F003
:105788006AFD8046002840F0DD80B5F8FC30DFF87F
:10579800CCB1002B14BF58460020002200230EF085
:1057A800C5FE78B96C48002200230EF055FE064667
:1057B80000283BD1B5F8FC30002B18BF5E463046B8
:1057C8000EF080FE6FF00B053846FEF755F9B9F17B
:1057D800000F00F08D8001992A462046C84787E0CF
:1057E800D4F8BC3004F1BC02C6B9D5F81811C5F814
:1057F80014318A4201D1C5F818310023C4F8BC30ED
:105808002046D4F8B0309847002892D0A37A072BC6
:1058180040F092802046FFF719FE8AE73360D5F8FA
:1058280018319A4208BFC5F81861E6E7019BC0F82D
:1058380004908360B5F8FCB04548DA454FF00002A3
:105848004FF000034FF0000198BF1FFA8AFBFEF7E4
:1058580095F8814650B1FEF76FF8414B5A4603EB75
:1058680000133946484611F0BBFC8146B5F8FC30B8
:1058780094F8C4709A458CBF4FF00108023784F839
:10588800C48098BFFFB204F1C008BFF35B8F58E82B
:10589800003F013348E80032002AF8D1BFF35B8F9C
:1058A80000233360A3695BBBC4E90566A378012BB9
:1058B80029D0BFF35B8F58E8003F013B48E800322E
:1058C800002AF8D1BFF35B8F314604F1140012F0BF
:1058D80016F84846FEF7D0F820463146FFF7BCFCDC
:1058E800B5F8FC301D48002B08BF00200EF0EAFD7B
:1058F8001321204612F093F82046FFF77BFDD2E6ED
:105908001E60A661D2E709F10C0A0421504611F085
:10591800A1FB238807F0FD0743EA07330380B9F8A2
:105928001030043B43800221504611F09BFB48464F
:10593800FEF7B2FB0028BCD1FEF7C2FBDCE76FF034
:10594800790541E76FF004053EE79368FFDE00BF85
:1059580090070020300000201407002030010020AC
:10596800E80F00202DE9F04140F2E243D0F88860CA
:10597800B6FBF3F60446B6B2031DBFF35B8F42686D
:10598800BFF35B8F920417D5B0F88C20B24213D8BE
:10599800B0F88E20B2420FD3D0E9241291420BD135
:1059A800BFF35B8F53E8001F21F4005143E8001256
:1059B800002AF7D1BFF35B8F104B1D6865B155F80E
:1059C800047C143D37B1B4F89230B4F890203146D5
:1059D8002046B8476D69F1E7094DDFF8288045454D
:1059E80001D3BDE8F0812F6937B1B4F89230B4F82B
:1059F800902031462046B8471835F0E71C100020A3
:105A0800A0AF0100B8AF01002DE9F04107460846F4
:105A18000D4611F093FD064618B900263046BDE83C
:105A2800F081144B1C6884B154F8083C143C0BB941
:105A38006469F8E72946384698470028EDD0284693
:105A480011F07CFD0028F3D1E7E70B4CDFF82C8040
:105A58004445E3D2E3680BB91834F9E729463846D8
:105A680098470028D9D0284611F068FD0028F3D1BE
:105A7800D3E700BF1C100020A0AF0100B8AF0100A1
:105A880038B505460C460E480121FFF781FCB0B138
:105A9800057223680367A388A0F87430A37980F897
:105AA800763001238370074BC0F8A830064BC0F846
:105AB800AC30064BC0F8B030054BC0F88C3038BD60
:105AC80060090020595D0000AD780100A17801004F
