:1000000068310020B11B00008FBD00009D1B000067
:100010009D1B00009D1B00009D1B000000000000B8
:10002000000000000000000000000000E91B0000CC
:100030009D1B000000000000811D00009D1B0000B2
:10004000ED1D00005D600000ED1D0000ED1D0000D5
:10005000ED1D0000ED1D0000ED1D0000ED1D000078
:10006000ED1D0000ED1D0000ED1D0000ED1D000068
:10007000ED1D0000ED1D0000ED1D0000ED1D000058
:10008000ED1D0000ED1D0000ED1D0000ED1D000048
:10009000ED1D0000ED1D0000ED1D0000ED1D000038
:1000A000ED1D0000ED1D0000ED1D0000ED1D000028
:0800B000ED1D0000ED1D000034
:1000B80080F0004002E000BF81F0004142001FBF15
:1000C8005FEA410392EA030F7FEA226C7FEA236C1E
:1000D8006AD04FEA1262D2EB1363C1BFD218414013
:1000E80048404140B8BF5B42192B88BF704710F0A9
:1000F800004F40F4000020F07F4018BF404211F04C
:10010800004F41F4000121F07F4118BF494292EAB3
:10011800030F3FD0A2F1010241FA03FC10EB0C00DF
:10012800C3F1200301FA03F100F0004302D549426C
:1001380060EB4000B0F5000F13D3B0F1807F06D319
:1001480040084FEA310102F10102FE2A51D2B1F111
:10015800004F40EBC25008BF20F0010040EA030006
:100168007047490040EB0000013A28BFB0F5000F86
:10017800EDD2B0FA80FCACF1080CB2EB0C0200FA3C
:100188000CF0AABF00EBC25052421843BCBFD0408B
:100198001843704792F0000F81F4000106BF80F405
:1001A80000000132013BB5E74FEA41037FEA226CC8
:1001B80018BF7FEA236C21D092EA030F04D092F093
:1001C800000F08BF0846704790EA010F1CBF0020C7
:1001D800704712F07F4F04D1400028BF40F0004024
:1001E800704712F100723CBF00F50000704700F044
:1001F800004343F0FE4040F4000070477FEA22626B
:1002080016BF08467FEA23630146420206BF5FEA3B
:10021800412390EA010F40F4800070474FF000033B
:1002280004E000BF10F0004348BF40425FEA000C02
:1002380008BF704743F0964301464FF000001CE0AA
:1002480050EA010208BF70474FF000030AE000BF00
:1002580050EA010208BF704711F0004302D540423E
:1002680061EB41015FEA010C02BF844601460020B0
:1002780043F0B64308BFA3F18053A3F50003BCFACB
:100288008CF2083AA3EBC25310DB01FA02FC634478
:1002980000FA02FCC2F12002BCF1004F20FA02F27F
:1002A80043EB020008BF20F00100704702F1200272
:1002B80001FA02FCC2F1200250EA4C0021FA02F2D3
:1002C80043EB020008BF20EADC7070474FF0FF0CD8
:1002D8001CEAD0521EBF1CEAD15392EA0C0F93EAD3
:1002E8000C0F6FD01A4480EA010C400218BF5FEA75
:1002F80041211ED04FF0006343EA501043EA5111E8
:10030800A0FB01310CF00040B1F5000F3EBF4900E1
:1003180041EAD3715B0040EA010062F17F02FD2AE5
:100328001DD8B3F1004F40EBC25008BF20F00100C8
:10033800704790F0000F0CF0004C08BF49024CEADF
:10034800502040EA51207F3AC2BFD2F1FF0340EA71
:10035800C250704740F400004FF00003013A5DDCE2
:1003680012F1190FDCBF00F000407047C2F1000223
:10037800410021FA02F1C2F1200200FA02FC5FEA10
:10038800310040F1000053EA4C0308BF20EADC705A
:10039800704792F0000F00F0004C02BF400010F4CC
:1003A800000F013AF9D040EA0C0093F0000F01F079
:1003B800004C02BF490011F4000F013BF9D041EA9B
:1003C8000C018FE70CEAD15392EA0C0F18BF93EA9D
:1003D8000C0F0AD030F0004C18BF31F0004CD8D1C7
:1003E80080EA010000F00040704790F0000F17BF4E
:1003F80090F0004F084691F0000F91F0004F14D094
:1004080092EA0C0F01D142020FD193EA0C0F03D1EB
:100418004B0218BF084608D180EA010000F00040EE
:1004280040F0FE4040F40000704740F0FE4040F4C9
:10043800400070474FF0FF0C1CEAD0521EBF1CEA68
:10044800D15392EA0C0F93EA0C0F69D0A2EB030286
:1004580080EA010C49024FEA402037D04FF0805320
:1004680043EA111143EA10130CF000408B4238BFE5
:100478005B0042F17D024FF4000C8B4224BF5B1AF3
:1004880040EA0C00B3EB510F24BFA3EB510340EA41
:100498005C00B3EB910F24BFA3EB910340EA9C00EF
:1004A800B3EBD10F24BFA3EBD10340EADC001B015F
:1004B80018BF5FEA1C1CE0D1FD2A3FF650AF8B4203
:1004C80040EBC25008BF20F0010070470CF0004C10
:1004D8004CEA50207F32C2BFD2F1FF0340EAC2503B
:1004E800704740F400004FF00003013A37E792F0FC
:1004F800000F00F0004C02BF400010F4000F013A5A
:10050800F9D040EA0C0093F0000F01F0004C02BF54
:10051800490011F4000F013BF9D041EA0C0195E7BD
:100528000CEAD15392EA0C0F08D142027FF47DAF56
:1005380093EA0C0F7FF470AF084676E793EA0C0F46
:1005480004D14B023FF44CAF08466EE730F0004C44
:1005580018BF31F0004CCAD130F000427FF45CAFD4
:1005680031F000437FF43CAF5FE700BF7BB972B95D
:100578000029BEBF00204FF0004106E008BF002858
:100588001CBF6FF000414FF0FF3000F057B8ADF1DD
:10059800080C6DE904CE002909DB002B1ADB00F0FA
:1005A80057F8DDF804E0DDE9022304B07047404263
:1005B80061EB4101002B1BDB00F04AF8DDF804E099
:1005C800DDE9022304B0404261EB4101524263EB92
:1005D80043037047524263EB430300F039F8DDF8F8
:1005E80004E0DDE9022304B0404261EB41017047B9
:1005F800524263EB430300F02BF8DDF804E0DDE939
:10060800022304B0524263EB4303704753B94AB91B
:10061800002908BF00281CBF4FF0FF314FF0FF3002
:1006280000F00CB8ADF1080C6DE904CE00F010F83C
:10063800DDF804E0DDE9022304B07047704700BF2D
:10064800034613F8012B002AFBD1181A013870470A
:100658002DE9F0478C468E46089E154604461946F5
:10066800002B40F0D080724547D9B2FA82F74FB1DB
:10067800C7F120030EFA07FC20FA03F3BD4043EA52
:100688000C0CBC404FEA154EA8B2BCFBFEF8230C7C
:100698000EFB18CC08FB00F943EA0C43994528D90E
:1006A800EB1808F1FF3204D2994502D9A8F10202E9
:1006B8002B44A3EB0903A4B2B3FBFEFC0EFB1C33D3
:1006C8000CFB00F044EA0344A04214D92C190CF1A5
:1006D800FF3304D2A04202D9ACF102032C44241AFD
:1006E80043EA02401EB1FC40002334607360BDE859
:1006F800F0874246DDE76346F1E7002A79D0B2FA8F
:1007080082F3002B3FD01946C1F1200302FA01F50C
:100718002EFA03F20EFA01FE20FA03F343EA0E035F
:100728004FEA154E00FA01F4B2FBFEFCAFB20EFB25
:100738001C201A0C0CFB07F842EA004290455AD9D3
:10074800AA180CF1FF3004D2904502D9ACF102008E
:100758002A44A2EB08029BB2B2FBFEFC0EFB1C2251
:100768000CFB07F743EA02439F4246D9EB180CF10A
:10077800FF3204D29F4202D9ACF102022B44DB1BA8
:1007880042EA004202E0AEEB020301224FEA154EB4
:10079800AFB2B3FBFEFC200C0EFB1C330CFB07F8BE
:1007A80040EA034398452AD9EB180CF1FF3004D2EC
:1007B800984502D9ACF102002B44A3EB0803A4B27C
:1007C800B3FBFEFC0EFB1C330CFB07F744EA0344A7
:1007D800A74216D92C190CF1FF3304D2A74202D92B
:1007E800ACF102032C44E41B43EA00400F461146D7
:1007F80078E71F2188E76046ABE76246BFE76046B7
:10080800DBE76346EFE7734506D916B900210846CA
:100818006DE7C6E9000EF9E7B3FA83F787B97345C0
:1008280001D3824207D8841A6EEB030301209C4649
:100838001EB900215BE73846FAE7C6E9004CF8E73D
:10084800C7F1200CBB4022FA0CF51D4320FA0CF12D
:100858002EFA0CF30EFA07FE41EA0E014FEA15498B
:1008680000FA07F4B3FBF9F81FFA85FE09FB183004
:100878000B0C08FB0EFA43EA00439A4502FA07F20A
:1008880040D9EB1808F1FF3004D29A4502D9A8F1F3
:1008980002002B44A3EB0A0389B2B3FBF9F809FB66
:1008A800183308FB0EFE41EA03418E452CD969181E
:1008B80008F1FF3304D28E4502D9A8F10203294476
:1008C80043EA0040A0FB0298A1EB0E014145CE4649
:1008D800434602D306D14C4504D2B9EB020E68EB6D
:1008E80005030138002EA4D0B4EB0E0261EB03011E
:1008F80001FA0CFC22FA07F34CEA0303F940C6E9B3
:10090800003196E74046C5E74346D9E700000000B6
:100918002DE9F041684C94F832308CB003F00103B3
:10092800002800F09580002B40F08480627E94F8C7
:10093800253004EB820204EB8303D5699E6A0DB36C
:100948002F4617F8020BC0F3801004F04BF9036828
:10095800C5F802308388BB802B785B0606D5062154
:10096800384602F053FE002800F09780374617F803
:10097800020BC0F3801004F035F90368C6F80230A2
:100988008388BB80237D0121C3F302030BA88DF864
:100998002C3002F0ABFF0246002855D031462846DD
:1009A80005F0DEF8454A464B278E07210025E0FB77
:1009B80002311846C4E902553DA3D3E90023257046
:1009C800FFF724FE606004F0E3F80694029562687D
:1009D8003C4B049200F109063B4802F247121A60A8
:1009E80091210993A7FB000301FB0731374B0793BC
:1009F800374B05934FF6FF734FF002080AAF039386
:100A08002BA3D3E90023CDF828800897FFF7FEFD34
:100A18000321CDE9005033464246284604F014F835
:100A2800394604F015FB78B994F8323043F00103E5
:100A380084F8323000200CB0BDE8F0811E4804F084
:100A480025FB844200D000DE0C200CB0BDE8F0810C
:100A5800002BEFD0204604F00DFB84421FD10BADD4
:100A680002220321194B009500200B9204F05AF83A
:100A7800294604F0EDFA0028E0D1164804F018FBE6
:100A880088B90D4804F002FB84420AD194F8323048
:100A980023F0010384F83230CCE71220CBE700DEE4
:100AA800DDE700DEF2E77830EBD000DEE9E700BFF3
:100AB8008D49FD1A070000004C11002000CA9A3B1E
:100AC8008C49FD1A40110020002AE784614C00007F
:100AD800E15B00005C11002070B5037D8AB0C3F3B0
:100AE80002030D46044601210DF1230016468DF838
:100AF800233002F0FBFE31460246284605F030F866
:100B08001D4A1E4B0721E0FB0231184618A3D3E902
:100B18000023FFF77BFD63689842054621D21B1A24
:100B280000220192164A0293164BA21AA3FB023224
:100B38000221120900230A4409AE099112490591BC
:100B4800CDE9033303210696D2B20093184603F089
:100B5800D1FF314604F07CFA38B9656000200AB04C
:100B680070BDFBD9C21A0023DBE70C200AB070BDA8
:100B78008D49FD1A0700000000CA9A3B8C49FD1AEE
:100B88004C1100204FECC44E614C000000000000E6
:100B9800F0B583B0C468054606F000FA002006F0F8
:100BA80021FA0021084606F00FFA00222521082024
:100BB80006F074FA304B019301A806F05BFA2F494E
:100BC80040F25B6006F004FB2279134662F3C5032A
:100BD8002371204606F044F827682E68384605F049
:100BE80009FD06446A6806F10901012006F010FCB7
:100BF80006F09EFC204605F045F9811C3246C9B234
:100C0800384605F0F9FC40B9204605F0CFFC10B98C
:100C1800002003B0F0BD00DEFAE70546184A19497E
:100C2800194840F211430AF069FF184B0721A5FB48
:100C3800030301FB05310EA3D3E90023FFF7E6FC0C
:100C48001349024613480AF059FF002585F3118815
:100C5800BFF36F8F0323184602DF0F48214606F0C3
:100C680071F906F05FFA6FF08B00D2E7AFF30080FE
:100C780000CA9A3B00000000D6BE898E5555550023
:100C88001CDC000068DC00006CDC00008D49FD1AEB
:100C9800B8DC00008CDC00001D6900002DE9F04F75
:100CA800DFF814B1DFF814A1DFF81491DFF814812C
:100CB8001C469BF80030012B03F1FF33DBB285B0F3
:100CC800154694BF9AF8002099F800200290022B4C
:100CD8000F469CBF3C49CB5C98F8001088BF4E2358
:100CE800CDE900210646394A394814210AF048F866
:100CF8003748FFF7A5FC374B5872374B1A68374B04
:100D08004FF0FF0C83F800C083F801C04FF0010CCE
:100D180083F802C09BF800C083F803C09AF800C0AB
:100D280083F804C099F800C083F805C098F800C09B
:100D380083F806C0DFF8A8C0BCF800C083F807C075
:100D4800D0B281004FEA1C2CD20B83F808C002F005
:100D5800020201F0040C42EA0C024FEA400C0CF0CB
:100D6800080CC00042EA0C0200F01000024301F037
:100D780020010A4316435E72B7F900209A72C2F343
:100D88000722DA72B7F902201A73C2F307225A73DC
:100D9800B7F904209A73C2F30722DA739DF8382052
:100DA8001D749C742D0AC4F307245D74DC741A75D1
:100DB80005B0BDE8F08F00BF631400206214002066
:100DC800611400206014002015E300003CDD0000E1
:100DD8004B140020D0010020F00800203614002019
:100DE8003014002030B514228BB000210DEB020026
:100DF8000CF01FFC0DF1060307930223089301234F
:100E080006930C238DF824301548856805A96B686E
:100E1800984718BB2B89BDF9064002A984FB033209
:100E2800CDE9023206F0ACFC10B120460BB030BD63
:100E3800DDE902321B0B43EA02531213CDE90232F9
:100E48004FF0FF3113F1004342F100029942904103
:100E580002D204480AF052FE0298E7E70020E5E7CC
:100E680030D900004FDD0000F8B505460F4616469C
:100E7800002401221E2109480AF0BEFB38460AF068
:100E8800E6FB064800221E210AF0B6FB0134304674
:100E98000AF0DDFBA542ECD1F8BD00BFDCD80000AC
:100EA80008B50AF0A2FB800000F1A040054BD0F87D
:100EB8000027134043F4C16343F00503C0F800372B
:100EC80008BD00BFF0F8FCFF800000F1A040044B13
:100ED800D0F80027134043F00203C0F800377047EA
:100EE800F0F8FCFF800000F1A040044BD0F8002788
:100EF800134043F00303C0F800377047F0F8FCFFD5
:100F0800800000F1A040034BD0F800271340C0F840
:100F180000377047F0F8FCFF2DE9F0412F4D0446EB
:100F2800884616460AF0FEFB2878400000F0FE00CE
:100F38000AF00DFC38B1701E18BF012044EAC01039
:100F48000AF005FC28B90AF030FC6FF00400BDE88F
:100F5800F0810AF0E7FB2878400040F00100C0B2B9
:100F68000AF0F5FB0028EED008F1FF380027022030
:100F78000AF03BFB0137082500240AF08DFB052009
:100F88000AF033FB0AF088FB02200AF070FB6400C9
:100F9800E4B2044305200AF073FB013DE4B2ECD14E
:100FA800B74234BF0021012102200AF070FB0AF089
:100FB80073FB05200AF019FB0AF06EFB05200AF006
:100FC8005FFB02200AF011FB0AF066FBB74208F843
:100FD800014FCCD10AF0E9FB2846B8E75F1400209E
:100FE80038B5164B1B78012B05460C4611D1042049
:100FF8000AF046FB0AF050FB28460AF050FB204650
:101008000AF04DFB04200AF0F0FABDE838400AF077
:1010180043BB0AF087FB0A4B1878400000F0FE003B
:101028000AF095FB30B128460AF091FB10B1204632
:101038000AF08DFBBDE838400AF0B7BB6314002006
:101048005F14002008B502F06DFA214B1B781BB124
:1010580000212020FFF7C4FF08200AF011FB04201C
:10106800FFF732FF0520FFF72FFF0220FFF72CFFC5
:101078000320FFF729FF0620FFF726FF0720FFF7C9
:1010880023FF4FF4167100220120FFF7EDFE114CEB
:1010980010481F210AF095FA002814DC32200AF0C3
:1010A800D6FAA268236994695CB11B680948002BC9
:1010B800B4BF4FF000734FF080634FF480021F21DC
:1010C800A0470AF028FD14200AF0C1FAE0E700BFA3
:1010D80063140020DCD8000038B54FF080440023AA
:1010E800C4F804310123C4F81835C825A360D4F81E
:1010F80004312BB942F210700BF0B3FE013DF6D16A
:101108004FF08043D3F80431CBB1184C01250023AC
:10111800C4F80835A560256015480BF0A2FED4F880
:101128000435144A9BB21380A3F62A43B3F5A37F70
:10113800114A65608CBF00230123A56013704FF02E
:1011480080450123EB606424D5F81834DB0304D50B
:1011580064200BF086FE013CF6D14FF0804300205E
:10116800C3F80401C3F8180538BD00BF00B000403B
:10117800A086010030140020601400202DE9F04FF3
:1011880089B000250495ADF814500CF0D0F94FF44F
:101198007A72A0FB020302FB0131C40B4FF08043BB
:1011A80044EA41444FEAD13BAD49D3F800240A60F0
:1011B800C3F80024AB4AAC481E210AF02DFAAA480D
:1011C8004FF480321F210AF027FAA848A8498368FB
:1011D800A84E1B6898474FF4167250210120FFF75C
:1011E80043FE08200AF001FAFFF77CFE0620FFF70D
:1011F80087FE0720FFF784FE14200AF028FA04204F
:101208000AF0F3F9FFF76EFE05200AF0EEF9FFF792
:1012180069FE02200AF034FAFFF764FE0320FFF7A4
:101228006FFE314601220F200AF059FA3378332B2A
:101238005DD1914B01221A7088212320FFF7D0FE3F
:1012480037212020FFF7CCFEFA2250210220FFF799
:101258000BFEFFF7C7FD0025034606460095284606
:101268002A4604A9FFF71AFD284601F08DFC00283C
:101278007AD1012300938149814B8248022201F0EF
:10128800CDFF4FF0FF370025B846A946C8200AF021
:10129800DEF91F2174480AF094F90028D4BF00230E
:1012A8000123824603930CF042F94FF47A72A0FBB3
:1012B800020302FB0131BAF1000F4FEAD03343EACF
:1012C80041434FEAD13155DDB8F1FF3F08BFB7F1CF
:1012D800FF3F00F0BE80B3EB070C40F2DC5061EB3F
:1012E8000802844572F1000247DBFFF7ABFE664E49
:1012F800664FDFF89C81B146042071780AF075F9D1
:10130800FFF7F0FD03200AF0C2F9FFF7EBFD02201A
:10131800FFF7C6FD0520FFF7C3FD33783B700220B9
:101328000AF095F95A4901220F20FFF7F5FD80B917
:1013380098F80030332B0CD105EB45054D444E4A47
:10134800AB781370002B7FF477AF78222821052023
:101358007DE76B1C022B06F103064FF00105CBD18C
:10136800454B00221A70F0E7502228210A20FFF787
:101378007BFD86E74FF0FF37B846464A1B1B61EBFB
:101388000B019A424FF000038B41AEDB3A4B1B78BE
:10139800002B44D0012B4FF0060206A94FF028007D
:1013A8005AD10AF09CF906AA04A8002192F801C0B3
:1013B80012F8023B013143EA0C2343F30B130329D0
:1013C80020F8023BF2D1BDF91000FEF72BFF814651
:1013D800BDF91200FEF726FF494682464846FEF749
:1013E80075FF514681465046FEF770FF0146484654
:1013F800FEF764FE0CF098F98146BDF91400FEF77B
:1014080011FF0146484609F029FF2349FEF75EFF10
:101418002249FEF75BFF0CF0DFF91FFA80F9192269
:10142800B5FBF2F302FB1353DBB213B9FFF7DAFC97
:1014380006460135EDB20398009533464A4604A99D
:10144800FFF72CFC0E4A0D480123022101F0CCFEC7
:101458001CE71F46884690E7FFF75EFDA3E700BF3D
:10146800F008002001001600DCD8000030D9000088
:1014780012DB00006214002063140020D001002059
:10148800C8010020F8DA000018E300005F1400200B
:101498006114002040771B00E02E654200002041C7
:1014A800014B1B68184700BFE001002030B5044617
:1014B80085B00D461022002168460CF0BAF80223C8
:1014C8008DF802302A46044B01932146684609F0FC
:1014D80081FC05B030BD00BFA914000080B50546E9
:1014E8000E461746984609F0ADF8034600F08CFC06
:1014F800DFF81890044649F800304246304639462D
:10150800A84754F8090000F021FC00BF08000000BB
:101518002DE9F047058B0446280717460CD5012905
:101528000CBF45F0100545F02005258387F3118889
:10153800BFF36F8FBDE8F087022905F0070540F07B
:10154800948020460AF00CFB052864D801A353F8C0
:1015580020F000BF35150000731600001F160000AC
:10156800E1150000FB1500000D16000001F007034F
:101578005A1F012A1FD8002221F00701062BD4F890
:10158800008089B2C4E9002209D1434603E0628B96
:10159800013262831B68002BF9D141F002012183DB
:1015A80020460AF0DDFA4FF0000900286DD041F01E
:1015B8002001218369E0042B0AD121F0070189B2B7
:1015C800218320460AF0CCFA10B141F02001218392
:1015D8004FF00008C14658E02369D3F80090238BE8
:1015E80023F0070343F0060323834FF00008464621
:1015F8004BE02369D3F80490238B23F0070343F0CF
:101608000403F1E72369D3F80890238B23F0070339
:1016180043F00503E8E74FF00008C146E7E7012279
:1016280043F00803238387F31188BFF36F8F002AE1
:101638003BD1B8F1000F4AD1B9F1000F02D02D49C2
:101648002046C847EFF31187202383F31288BFF39E
:101658006F8F238B23F008039BB22383D9063FD5D2
:1016680023F01002228303F007056669218B002E00
:10167800BFF67CAF0023D4F8008021F00701C4E94D
:10168800003341F0010121839946238B03F0070AB7
:10169800AA4502D0A268002AC1D1B8F1000F02D130
:1016A800B9F1000FDAD00022BAE7A1680029C0D04A
:1016B8000D680029BDD04F68334652462046B847CA
:1016C8001DB12B6829461D46F3E72B46FAE741462C
:1016D800334652462046D8F800800AF06DFAA8E74B
:1016E8009A067FF523AF23F02002228303F0070533
:1016F80027E700BFEDBB0000014B036000207047E7
:1017080020DB000008B50348034A0021121A0AF03A
:1017180032FB08BD30040020741400200748084A32
:10172800084908B5121A0AF028FB0748074A084969
:10173800BDE80840121A0AF020BB00BF00000020D4
:101748003004002088E30000000000200000002092
:1017580088E3000038B505460C4699B1D1E9012364
:101768000F4809680AF0BDF9D4E90423E1680D4877
:101778000AF0B7F9E1690C480AF0B3F9A1690B4816
:101788000AF0AFF9012D05D1EFF3058108481039AA
:101798000AF0A7F921462846BDE8384008F05EB8A7
:1017A80073DD0000A3DD0000D3DD0000E3DD0000F1
:1017B80012DE000030BFFFF7FDBF00BF2DE9F0418A
:1017C8000B4EDFF8308006EB0807CC1B0546324687
:1017D800094920460BF006FFA01942460021083CA3
:1017E8000BF027FF2C6707F10800BDE8F08100BF68
:1017F8000000000004000000D4DA000010B51D4C01
:101808001D480AF06EF9A36A990130D51B480AF001
:1018180068F91E20A36ADA0103D519480AF061F9AC
:101828001F20144CA36A1B0303D516480AF059F964
:101838002120A36A590303D513480AF052F922203C
:101848000C4CA36A9A0303D510480AF04AF92320DE
:10185800A36ADB0303D50E480AF043F92420054A9E
:10186800936A6FEA03436FEA1343936210BD1D2026
:10187800D0E700BF00ED00E026DE00003FDE0000FC
:1018880053DE00006EDE00008DDE0000B3DE0000D7
:10189800CEDE000070B5204C064620480D460AF002
:1018A80020F9A36AD90435D51D480AF01AF917207A
:1018B800A36A1A0503D51B480AF013F91820164C19
:1018C800A36A9B050FD518480AF00BF9A16BA36A08
:1018D800180407D515480AF004F91EB1A36A23F4C1
:1018E8000043A36219200C4CA36A5A0503D510487B
:1018F8000AF0F7F81A20A36ADB0503D50D480AF0A9
:10190800F0F81B20044A936A43F47F439362002350
:101918002B7070BD1620CBE700ED00E0FADE00006A
:1019280011DF000023DF000037DF000051DF000077
:1019380067DF000083DF000070B51F4C06461F48B4
:101948000D460AF0CEF8A36AD90632D51C480AF02B
:10195800C8F81120A36A1A0703D51A480AF0C1F873
:101968001220154CA36A9B070FD517480AF0B9F83F
:10197800616BA36A180607D514480AF0B2F81EB1BD
:10198800A36A23F08003A36213200B4CA36ADA072F
:1019980003D50F480AF0A5F81420A36A064ADB0607
:1019A80058BFA36A936A43F0FF03936200232B7026
:1019B80070BD1020CEE700BF00ED00E09CDF000006
:1019C800B3DF000023DF0000E7DF000000E00000D5
:1019D80017E000002DE9F0415D4B5F688AB00446CE
:1019E800C7F30806002585F31188BFF36F8F02F04F
:1019F8007F43B3F17F4F06D102F00C03082B13D1BC
:101A080054480AF06EF800252C464FF00008F31EE3
:101A18008DF80780092B00F28B80DFE803F00A7F3E
:101A2800837B89898989898710074CBF0C460125E2
:101A3800EBE74948464E0AF054F88DF80780F36AF8
:101A48009A0704D545480AF04CF800232AE0F36ABF
:101A5800002B01DA4248F6E7F36A5B00F5D5414806
:101A68000AF03FF87369A26943F480737361BFF3A6
:101A78004F8FBFF36F8F32F8023C726922F4807285
:101A88007261BFF34F8FBFF36F8F03F47F42B2F5DC
:101A98005F4F27D1DBB2022B24D1216832480AF0EC
:101AA80020F823689DF80720CAB902AE04F1200780
:101AB80020686168324603C20834BC421646F7D132
:101AC800099A002D40D0C2F3080121B96FEA5222C9
:101AD8006FEA4222099202A91846FFF73BFE0AB0B4
:101AE800BDE8F0811A4B9A6AD2B22AB10DF107010A
:101AF8000120FFF721FF0FE09A6A12F47F4F05D00B
:101B08000DF107010120FFF7C5FE05E09B6AB3F55B
:101B1800803F9AD3FFF772FE0346C3E70DF1070132
:101B28000020E6E70DF107010020ECE70F488AE7FF
:101B38000F4B1049104817F4F87FA6F1100208BFA0
:101B4800194609F0CEFF80E76FF30802C2E700BF2D
:101B580000ED00E065E0000091E00000A9E0000071
:101B6800CBE00000DAE00000FAE0000017E1000036
:101B780037E000004CE000003CE10000044B5A69EB
:101B880042F010025A615A6922F008025A617047FD
:101B980000ED00E0EFF30880EFF3098101B572462C
:101BA800FFF718FF01BD00BF0B4880F3088806F057
:101BB80057FF202080F3118808484FF4006140182F
:101BC80080F30988EFF314800221084380F3148816
:101BD800BFF36F8F0AF0E2F8683100206822002016
:101BE8001EF0040F0CBFEFF30880EFF30980816942
:101BF80011F8021C0229FFD001B572460AF0BFF89D
:101C080001BD00BF40B2002807DB044A4109012397
:101C180000F01F00834042F82130704700E100E0E7
:101C280040B200280CDB4309064900F01F002033AE
:101C38000122824041F82320BFF34F8FBFF36F8FFB
:101C4800704700BF00E100E0054B420900F01F00AB
:101C580053F82220012303FA00F01040704700BF18
:101C680000E100E040B20028A8BF00F1604001F1A7
:101C78000101B8BF064B4FEA4111ACBF00F5614006
:101C880000F00F00C9B2B4BF195480F800137047B0
:101C980014ED00E0044B054A23F07F039360BFF383
:101CA8004F8FBFF36F8F70470000000000ED00E01A
:101CB80042F8203C009B42F81C3C0A49019B42F830
:101CC800183C029B42F8143C21F001014FF080734C
:101CD80042F8043C42F8081C0023203A0265436796
:101CE800704700BFE514000000B50B4B98600B4B24
:101CF8001546026F1A600E462C4686F309880020A6
:101D0800034B98472046002100220023014C20471E
:101D1800C1BD0000E5140000FC130020F4080020F9
:101D2800014B10221A61704700ED00E0054B5A691B
:101D38009B689A421FBF044A536843F0805353601C
:101D4800704700BFFC13002000ED00E0084B9B68C3
:101D580083420BD1EFF3058343B1064B5A6842F037
:101D680080525A605A6A22F400425A6208F070BCE3
:101D7800FC13002000ED00E011498A684FF03000A4
:101D88001044EFF3098C80E8F01F202080F31288BC
:101D9800BFF36F8F0B4F4FF000664A698A603E6051
:101DA800106F094C2060506F0023536780F311882F
:101DB80002F1300090E8F01F8CF3098870470000AA
:101DC800FC13002004ED00E0F40800200448002380
:101DD8002021C21801331E2B82F80013F9D1704755
:101DE80000E100E008B5EFF30583064A103B02EB7B
:101DF800C30152F8330049688847BDE80840FFF737
:101E080095BF00BF68D9000001480068704700000E
:101E1800F4080020024B034A0348012100F066B889
:101E2800006000200000002020DB0000084AC2F803
:101E380098000B6823F01F03034343F01003C2F814
:101E48009C308B6843F00103C2F8A030704700BF94
:101E580000ED00E02DE9F043DFF8608085B00E4624
:101E68001F4604464FF00009B14523DA6068D8B12F
:101E78003FB1411E08421BD11F2819D923681942B6
:101E880016D12368019309F0BAFFA36803430393AB
:101E9800D8F89050C5F30725D0B2013DA84207D81D
:101EA80001A9FFF7C3FF421C09F101090C34DBE764
:101EB8006FF01502104605B0BDE8F08300ED00E0B4
:101EC800044B0522C3F89420BFF34F8FBFF36F8FE5
:101ED800704700BF00ED00E0BFF35F8F024B0022A8
:101EE800C3F89420704700BF00ED00E010B5034C24
:101EF80001232278FFF7AEFF207010BD6414002084
:101F08002DE9F0435A4B5B4DD3F890302C68C3F35E
:101F180007239C4285B000F2A780FFF7DDFF002071
:101F28000C2684421AD1544EDFF844913470684626
:101F3800FFF7E2FB514C524D80460027B84514D1BB
:101F480033784B490020D1F89020C2F307229342FE
:101F5800C0F28480FFF7B4FF002045E0696806FB03
:101F68000011FFF763FF0130DBE7009800EB071172
:101F78004FEA071CCB682340B3F5000F4DD00AD8B1
:101F8800B3F5001F33D0B3F5800F3BD0B3F5801FF6
:101F980013D00137D2E7B3F1007F47D0B3F1805FA8
:101FA8004DD0B3F1807FF4D150F80C3088684A687E
:101FB80009F025FF40F0887009E050F80C30886877
:101FC8004A6809F01CFF40F0885040F43020CDE901
:101FD80001230390D9F890303078C3F30723013BED
:101FE800984234D96FF0150005B0BDE8F08350F879
:101FF8000C3088684A6809F002FF40F0885040F4C5
:102008000020E4E750F80C3088684A6809F0F7FEC9
:1020180040F0C06040F40030D9E750F80C308868D0
:102028004A6809F0ECFE40F08270D0E750F80C30B6
:1020380088684A6809F0E3FE40F48020C7E750F852
:102048000C3088684A6809F0DAFE2843BFE701A91E
:10205800FFF7ECFE3378013333709AE7C1F8983014
:10206800C1F8A00001336EE74FF0FF30BCE700BFB6
:1020780000ED00E02CDB0000641400200000F0FFFD
:102088000000021108B50649064821F00701C1F110
:10209800005202F5C04209F0E1FC002008BD00BF73
:1020A8009F3B0020F808002070B54169867A0B4DE7
:1020B800044659B1437ADB0706D4242303FB0653AD
:1020C800DB691B689B6898470023636124202146CD
:1020D80000FB0650BDE870400AF0E0BFA0030020F6
:1020E800024B242202FB0030704700BFA0030020EF
:1020F800827A064B242101FB02331A6A1B7D1B33AB
:10210800801A23F00303B0FBF3F07047A00300200C
:1021180038B5074B827A242404FB0233DB69D3E900
:1021280001240C601568FFF7E3FF04FB005038BD7D
:10213800A00300202DE9F04385B0054668460391C9
:1021480090461C460BF0F5F9DDE90067EFF31189BD
:10215800202383F31288BFF36F8F6B8A002B41D043
:102168002A8A9A4225D900220023284607F072FDC0
:102178000446F0B189F31188BFF36F8F039B002BDE
:1021880041D032463B4668460BF0F8F9A27A264B16
:10219800242101FB02332046DB691B6803A91D6863
:1021A800DDE90023A847606170BB2046FFF77CFF8C
:1021B80024E0698A4B1E6B8289F31188BFF36F8F05
:1021C8002B7D2A8A2C6A1B3323F00303521A02FB45
:1021D8000344154B154AEB1A9B105343A3722B7DEE
:1021E800E372CBE789F31188BFF36F8F234642462A
:1021F800284607F02FFD04460028BFD100242046BA
:1022080005B0BDE8F0836361012300252381039BAA
:102218006382E27A6560294604F118000BF009FA36
:1022280063692582E360EAE7A0030020398EE3387A
:10223800F8B5124D0024242600B9F8BD00F10802B3
:102248004768BFF35B8F52E8003F591E42E8001C05
:10225800BCF1000FF7D1BFF35B8FDBB2012BECD1E0
:10226800837AC46006FB035344609B6913B19847A3
:102278003846E1E7FFF718FFFAE700BFA0030020A0
:1022880048B1054B054A1B68B3FBF2F35843044BAE
:1022980043F00103184770474403002040420F00F1
:1022A800F0DA000010B509F073FE0AF0D0FF04461A
:1022B80008B908F003F9BFF35B8F064B1B68BFF33F
:1022C8005B8F0BB10A2098471CB9BDE8104008F095
:1022D80009B910BD0409002038B50446084809F0BA
:1022E800B0FD054648B1631EDBB21F2B96BF054AF9
:1022F8000021D15C0C3009F0F9FD284638BD00BF3B
:10230800E803002031E300000E38012810B50AD890
:10231800094809F096FD044618B104210C3009F06B
:10232800E5FD204610BD09B10448F2E7BDE81040BC
:102338000220FFF7D1BF00BF0C040020A00300203B
:1023480010B586B003AB00240093074907480594ED
:102358004FF0FF334FF48062CDE9034407F048FEA5
:10236800204606B010BD00BF7814002030040020BD
:1023780010B5012104460C3009F0D9FD2146034A65
:102388000078BDE81040002309F02DBEC4DB000032
:1023980010B5012104460C3009F0C9FD2146034A55
:1023A8000078BDE81040002309F01DBEC4DB000022
:1023B80010B5012104460C3009F0B9FD2146034A45
:1023C8000078BDE81040002309F00DBEACDB00002A
:1023D8002DE9F047884616468246002870D0BFF39C
:1023E8005B8FDFF8E090002359E8004F49E800329E
:1023F800002AF9D1BFF35B8F002C61D02046FFF78C
:1024080077FE314D0C2303FB005027464388534584
:1024180011D0BFF35B8F59E8003F49E80072002AEA
:10242800F9D1BFF35B8F002B4AD01F463846BDE871
:10243800F047FFF7FDBEA64208D0204609F0FCFC95
:10244800328AF16804F10C0009F047FD2046FFF7D5
:102458004FFE0C2606FB00504368ABB1B8F1000FE5
:1024680012D12046FFF744FE06FB005001214268C6
:10247800536803F01F00814010685B0900EB83007C
:10248800137ACBB109F09CFD2046FFF731FE0C26EC
:1024980006FB00508368002BC8D02046FFF728FEB3
:1024A800704305F800802046FFF722FE06FB005522
:1024B800A86807F005FCB9E7C94309F0ABFDE3E7F5
:1024C800BDE8F0870801002008090020094BBFF388
:1024D8005B8F1A68BFF35B8F02F00B02BFF35B8F51
:1024E80053E8001F43E800200028F9D1BFF35B8FB1
:1024F800704700BFD40000202DE9F0470C4607F0D4
:10250800DDFFE568B4F810802B78042B6DD1B8F1A5
:10251800020F08D82046FFF78BFE002407F0E2FFE1
:102528002046BDE8F0876B783E2B09D1B8F1030F40
:10253800F0D0EB78012B01D00A2B47D1032705E017
:10254800052BFBD00E3B012B40D8012704F10C06CC
:1025580001213046D4F814A009F0E1FC02213046EC
:1025680009F0E5FC03783E2B814607D1E3681B7828
:10257800012B01D00A2B06D1032614E0052BFBD032
:102588000E3B012B2BD91C4A1C491D4841F26813EC
:1025980009F0B4FA002383F31188BFF36F8F032384
:1025A800184602DF02260323164A99F8000021463E
:1025B80009F019FDB30714D56369A4F81080A5EBD9
:1025C8000A0513FA85F5E560012FA6D021460E48C5
:1025D80009F03BFC0D490E480AF004FE9DE7012670
:1025E800E1E72046FFF724FEEEE72046FFF720FE4E
:1025F8006FF0150492E700BF5FE1000093E100006F
:10260800ACE1000094DB00000C0100206402002013
:10261800D004002038B51C4809F02CFC044688B3C7
:1026280000F10C05284609F08AFC04281DD128462B
:10263800022109F07CFC03780E3B012B05460ED8DD
:10264800124A1349134840F69A4309F057FA0023EF
:1026580083F31188BFF36F8F0323184602DF0E4AF6
:1026680028780323214609F0BEFC2046FFF7E0FD49
:102678000A4BD3F80C312BB1BDE83840084909485A
:102688000AF0B0BD38BD00BF0C0100205FE10000BA
:10269800C9E10000ACE10000ACDB00000000002054
:1026A80064020020D004002010B5C1E900239DF881
:1026B80008300B720C46FFF71BFD034B0C2202FB84
:1026C80000335C6010BD00BF08090020F8B5024661
:1026D8000B46104809F0B5FB0446C0B104210C3084
:1026E80009F0F1FB2046FFF703FD0B4D0C2707FB14
:1026F8000050002646802046FFF7FAFC07FB0050F2
:1027080086602046FFF7F4FC07FB00556E60204604
:10271800F8BD00BFC403002008090020034B014690
:10272800D3F8240182689268104700BF0000002097
:102738000148042109F044BCD400002001490248A2
:102748000AF050BD540200203004002070B5054640
:102758000C4639B1CB684A699B1A032B0ED86FF027
:10276800150509E04FF0FF304FF0FF31FFF7AEFFDE
:10277800044618B96FF06805284670BD2046FFF773
:10278800B7FC144B0C2202FB0033A6180321304679
:102798005D8009F0B3FB0580238A033B8370012128
:1027A800304609F0B3FB40F635439D4209D1204637
:1027B800FFF7B4FF05460028DED02046FFF738FDB6
:1027C800DAE7054821460AF05EFC0025FFF7B6FF68
:1027D800D2E700BF08090020140100202DE9F043CA
:1027E800064685B017460C4669B94FF0FF304FF0E2
:1027F800FF31FFF76BFF044658B96FF068052846AC
:1028080005B0BDE8F083887AFFF76AFC304B834255
:1028180058D10122002168460AF04AFC2046FFF7F9
:1028280067FCDFF8B0900C2303FB0090C0F808D0D9
:10283800204609F035FB01463046FFF787FF05467D
:1028480018B12046FFF7F4FCD9E74FF4A022002383
:10285800684607F069FA804690B14FF4F1731E4A52
:102868001E491F4809F04AF91E484246314609F0F8
:1028780045F985F31188BFF36F8F0323184602DFEC
:102888002046FFF735FC0C23584319F80060AEB119
:102898002046093EFFF7CCFC092E0CD8DFE806F0ED
:1028A800050B0B08150B0B0B0B126FF06E05A6E74B
:1028B8006FF00C05A3E76FF00405A0E7002FC0D068
:1028C8003C609CE76FF0150599E76FF00B0596E7FC
:1028D800C4030020080900205FE10000F7E10000C0
:1028E800ACE1000000E20000F7B50022114640F616
:1028F8000340FFF773FF0446002853D1FFF7E6FDB6
:10290800214601AA41F20300FFF768FF04460028A8
:1029180048D1019A994DD168D1F80100D1F8051034
:1029280005F1780303C31046FFF782FC214601AA8C
:1029380041F20100FFF752FF044698BB0198C368B3
:102948005A7885F870205A88A5F872201A7985F87F
:102958007120B3F80720A5F87420B3F80530A5F85E
:102968007630FFF765FC214601AA41F20200FFF725
:1029780035FF0446B0B9019FFA6805F18006531C7B
:10298800413218685968344603C4083393422646CE
:10299800F7D13846FFF74CFC95F87C305C0604D438
:1029A8006FF01204204603B0F0BD01AA002142F2E4
:1029B8000300FFF713FF04460028F3D1019A704B78
:1029C800D168D1F80100D1F8051003C31046FFF70C
:1029D8002FFC1F23A5F8E83095F87C30980619D409
:1029E8004FF0FF304FF0FF31FFF770FE064600282A
:1029F80000F0AA8002210C3009F069FA0123447022
:102A080003702246314640F66D40FFF7E7FE044664
:102A18000028C7D195F89C30190712D501AA0021C2
:102A280042F21C00FFF7DAFE04460028BAD10198EA
:102A3800C368D3F80120D3F80530C5E93823FFF778
:102A4800F7FB4FF0FF304FF0FF31FFF73FFE044632
:102A5800002879D008210C3009F039FA0227002221
:102A6800077042708270C270027142718271C271C5
:102A7800214642F20100FFF7B1FE0446002891D139
:102A88004FF0FF304FF0FF31FFF720FE06460028D9
:102A98005AD008210C3009F01AFA802343702023F9
:102AA80004708470047144718471C770C3712246C4
:102AB800314640F60140FFF791FE044600287FF4B6
:102AC80071AF014601AA4FF60140FFF787FE0446A1
:102AD80020BB0198FFF7ACFB214601AA4FF6024044
:102AE800FFF77CFE0446C8B90198C368B3F8013003
:102AF800A5F8C130FFF79CFB95F8C1305A070DD5F2
:102B080001AA21464FF60340FFF768FE30B9019845
:102B1800C3685B7885F8C030FFF78AFBEB7923B987
:102B280003B0BDE8F04000F01BBB2E78002EF7D1B3
:102B380095F8C1309B061ED54FF0FF304FF0FF319E
:102B4800FFF7C4FD044610B96FF068042AE70621B0
:102B58000C3009F0BCF9D5F801300360094B9B88AB
:102B68008380214632464FF60640FFF737FE04467B
:102B78000028D5D016E76FF0850413E70000002081
:102B8800D80000200100002073B5264D0646D5F870
:102B980024010AF082F900283DD06FF0020105F106
:102BA800D40009F037FA012109F00AFA10EA010401
:102BB80034D11D4B1E600A4605F1F8000AF078FA78
:102BC80005F58A700AF031FA18480AF01BFB184913
:102BD800164800946FF007034FF4966207F008FA5E
:102BE800144912480AF039FBD5F8240112498368C0
:102BF8001B689847044630B946B9FFF775FE044686
:102C080008B9FFF795FD204602B070BD05F1C40074
:102C180007F0E8F9F7E76FF01204F4E76FF07704CC
:102C2800F1E700BF0000002014090020D0040020B4
:102C38007818002045E200000125000010B5FFF7D4
:102C480053FE044608B9FFF773FD044B1B681BB11C
:102C58002046BDE81040184710BD00BF14090020E9
:102C680038B5032104460C3009F061F90346B0F881
:102C7800010040F6354290420DD01D78E3682246A7
:102C88001978FFF7A5FB35B1034807F019F8BDE837
:102C98003840FFF753BD38BDF800002038B507F0BD
:102CA8000DFC274DD5F81431002B44D00022002309
:102CB80005F1F80007F038F800283CD1002200237D
:102CC80005F58A7006F0C6FF044668B91D4A1E4914
:102CD8001E4840F6AA4308F011FF84F31188BFF399
:102CE8006F8F0323184602DFD5F8080120B1FFF7DC
:102CF8009FFA0023C5F80831204609F0D1F8C5F835
:102D080008012046FFF70AFD98B1114806F0D8FFE0
:102D18002046FFF7EDF90F4B0C2202FB00301F2174
:102D280040882246FFF754FB2046FFF781FAFFF759
:102D380005FDFFF703FDBDE8384007F0D3BB00BF32
:102D4800000000205FE100004EE20000ACE100005E
:102D5800F80000200809002038B5042104460C308A
:102D680009F0E5F84578017840882246FFF730FBFE
:102D780035B1044806F0A4FFBDE83840FFF7DEBCD3
:102D880038BD00BFF800002070B54FF0FF320D4687
:102D98004FF0FF3300210646FFF7B6FA044660B944
:102DA8000A4A0B490B481A2308F0A8FE84F3118835
:102DB800BFF36F8F0323184602DF022104F10C00D2
:102DC80009F085F806704570204670BD52E2000093
:102DD8004EE20000ACE10000F8B50A4DEF79064676
:102DE8000024E3B29F4202D86FF0010007E02946B1
:102DF800304609F03FF90735631C08B12046F8BD95
:102E08001C46EEE70000002070B5144E062231463D
:102E180004460AF016FCE0B14FF0FF304FF0FF31E6
:102E2800FFF754FC0546A8B1062221460C3009F0EC
:102E380054F80022294642F20500FFF7CFFC40B9BA
:102E48003346226843F86929A288B280012283F8B0
:102E5800682070BD6FF06800FBE700BF69000020C4
:102E680073B504460D4689B11749284609F002F999
:102E780060B9164A2968C4EBC404A3181151AA887A
:102E88009A80AA799A71002002B070BD6E463046C9
:102E980009F070F80028F7D13046FFF79DFF0028A9
:102EA800F5DA0A4A0098B179C4EBC404A3181051A2
:102EB800B08898809971002DE5D012592A609A88B7
:102EC800AA809B79AB71DEE71EE3000000000020BA
:102ED80070B5044611B16FF0150070BDF0B123490B
:102EE80009F0C8F8D0B92046FFF776FF002837DA8E
:102EF800237863B91E4AD37993BB20681060A179FF
:102F0800A088917101219080D1711846E5E7012BC5
:102F1800E1D1A37903F0C003C02BDCD1144DEB79C8
:102F2800012B20D0BFF35B8FD5F8D430BFF35B8F74
:102F3800DB0707D4002CCED00C49204609F09AF8BC
:102F48000028C8D1EE792146731C3046EB71FFF793
:102F580087FF08B93046C0E7EB79013BEB71BCE766
:102F68006FF07700B9E76FF00B00B6E71EE30000DB
:102F7800000000202DE9F3410446D8B101AA002140
:102F880041F20900FFF72AFC054698B9019E12494B
:102F9800D6F80C8008F10107062238460AF051FBE2
:102FA80028B10E49062238460AF04BFB30B93046A4
:102FB800FFF73EF9002002B0BDE8F081D8F80130F3
:102FC800C4F80130BB88A4F8053030462570FFF7F7
:102FD8002FF90120EFE700BF2BE3000025E30000F5
:102FE80007B56846FFF7C6FF044BD87118B16946A4
:102FF8000020FFF735FF03B05DF804FB0000002058
:10300800F0B5294DEE7989B0002E46D195F8C23039
:10301800DB0722D56A4631464FF60940FFF7DEFB4B
:10302800D8B9DDF800C0DCF80C406378012B1E46E7
:1030380028BF012673B1A31C02AA12341868596864
:10304800174603C70833A3423A46F7D118683860D1
:103058009B88BB806046FFF7EBF8EE7100241626CC
:103068000127EB79E0B2984202D3B3B1002012E015
:1030780008AB06FB0033694653F8182C33F8143CA8
:10308800CDF80120ADF805308DF80070FFF7E8FEA7
:1030980001340028E5D009B0F0BD0021084609B088
:1030A800BDE8F040FFF714BF000000202DE9F04113
:1030B8001D460E4617460346002849D0002D47D026
:1030C8000A0307D54C0743D408F0E4FF10BB0123DB
:1030D8002B701FE0B10704781ED020492FB1B2062B
:1030E80003D591F8D820500635D5C4EBC40411F89F
:1030F8000480B8F1010F08D101342144184608F0C2
:10310800C1FF38B985F8008002E0B8F1000FF9D0A6
:10311800A7B90020BDE8F081720716D50F49C4EBA6
:10312800C4040F5D012F07D10134214408F0AAFF20
:103138000028EFD12F7001E0002FFBD0B306E8D5AF
:103148002B7843F002032B70E3E708F0A3FFBEE7F8
:103158006FF01500DEE76FF08500DBE70000002068
:1031680010B50A4CE3790BB1002010BDFFF738FF0A
:103178000028FAD1E379002BF6D1FFF741FF0028A8
:10318800F3D1601CBDE81040FFF73EBE00000020F0
:10319800F7B5CDE90001694642F208009DF82070B4
:1031A80016461D4608F091FF044668B97FB9BFF37B
:1031B8005B8F0C4B53E8001F41F0040143E80012F9
:1031C800002AF7D1BFF35B8F204603B0F0BD6946F4
:1031D80042F20900CDE9006508F077FF0028E6D043
:1031E8000446F1E72800002037B50B4CBFF35B8F8E
:1031F8002568BFF35B8FED050BD5BFF35B8F2468A4
:10320800BFF35B8FC4F380240094FFF7C1FF03B0C2
:1032180030BD6FF00A00FAE7280000202DE9F04FD2
:1032280089B0D0F810900293B9F1000318BF0123B8
:10323800DFF8D0A2039305460F469346BFF35B8F92
:10324800DAF80030BFF35B8F5A0740F13C814668DB
:1032580073050BD56FF01504002340F201119B454F
:1032680040F03A81204609B0BDE8F08FD0F81080D0
:10327800B8F1000F01D0B407ECD0A34C2878E3795B
:103288008342E7D9C0EBC000A049072220440AF0D6
:10329800D8F90028DED0B00706D194F87030082B92
:1032A80002D8AB689F2BD5D916F0300F74D0B8F17F
:1032B800000FCFD0F10672D406F46036B6F5603F41
:1032C800C8D0284608F0FDFE80460028C2D0904E9F
:1032D800BFF35B8F3268BFF35B8FC2F30023D20565
:1032E80000F1F4806A68CDE90533CDF81B30AB688E
:1032F800ADF8103012F4004FEB68ADF8123014BF7F
:1033080006230723D00348BF03F00503910348BFF2
:1033180003F0FB038DF81D30BFF35B8F5AE8003FC5
:1033280023F480734AE80032002AF7D1BFF35B8F99
:103338002B78237684F86F30039A696875480DF105
:103348001503FFF7B3FE0446002885D1724BB9F187
:10335800000F30D02A6911684AF8B31C9188998007
:1033680092799A716B689A0727D0B9F1000F2BD020
:1033780013F0100F0CBF012304238DF814302B69B0
:103388001A68CDF816209A88ADF81A209B798DF81E
:103398001C304FF000081AE0B8F1000F8CD1D5E9C5
:1033A80002239A423FF656AF1F2A7FF653AFB3F572
:1033B800804F81D94EE7554ACDE79C0502D4029B40
:1033C800002B55D0022300E04B468DF814304FF007
:1033D800FF304FF0FF31FFF779F90446002878D025
:1033E8000F2204A90C3008F078FD2146002242F291
:1033F8000600FFF7F3F9044600287FF42DAFB9F172
:10340800000F39D04348012108F0B9FE04460028CE
:103418007FF422AF6B68BFF35B8F980738D056E80C
:10342800003F43F4007346E80032002AF7D1BFF3A7
:103438005B8FBFF35B8FB8F1000F32D056E8003FC7
:1034480043F4806346E80032002AF7D1BFF35B8F6C
:103458006B68BFF35B8F59072CD556E8003F43F4E0
:10346800805346E80032002AF7D1BFF35B8FF3E6BA
:1034780003238DF814308CE7129B029ACDF8008054
:1034880059463846FFF784FE04460028BAD0E3E6DA
:1034980056E8003F23F4007346E80032002AC6D0FD
:1034A800F6E756E8003F23F4806346E80032002A36
:1034B800CCD0F6E756E8003F23F4805346E80032C4
:1034C800002AD2D0F6E76FF00A04C5E66FF0770459
:1034D800C2E66FF06804BFE63A888A4204D17A6887
:1034E80012B11278D20702D401330837B7E60B4974
:1034F8000B4809F08DFE4FF470220023084806F0AF
:10350800E5FDAFE6D4000020000000201EE3000027
:10351800280000201800002021000020D9C1000048
:103528003000002010B50A4C204608F04EFEBFF3CC
:103538005B8F2369BFF35B8FC3F30020DB0505D5E1
:1035480020460021BDE8104008F019BE10BD00BF9C
:103558001800002000F1070C2CF0030C10B4541EC6
:103568001860A4B2ACF80020023A93B201FB04F24E
:103578004FF0000C40F802C074B103FB011403FBC8
:1035880001F22044121B4FF6FF7C013B9BB26345BE
:103598008050A0EB0100F8D110BC704703460068CA
:1035A80010B102680AB91A60704700F1070C2CF0D4
:1035B800030CD11DBCF800C021F003010CF1FF3C45
:1035C800A1F800C0EFE700BF0B687BB1073323F019
:1035D80003031A88013292B20346D1F800C043F8B7
:1035E80007CB23F003031A80086070470122F3E732
:1035F800531E11449BB242B1DB430138CA1811F87B
:10360800013D00F8013F9142F9D17047014402E0C1
:1036180010F8013B1BB98842FAD1002070470120FD
:10362800704700BF10600860704700BFD2F800C044
:10363800CCF80000D2F800C0CCF804101060704735
:10364800884203D01AB1436813607047002070475E
:103658000B68834209D02AB1586810601A680A605A
:1036680018467047002BF9D1FAE70023F8E700BFA6
:103678002DE9F8430E4EDFF83C904FF090080C27E8
:1036880006F1200409EB08052A1D29462046083CB6
:10369800FFF7C8FFB442A5F10C05F5D1043F3B1D67
:1036A800A8F13008A4F12006EAD1BDE8F88300BFEC
:1036B80074090020C0090020F8B506461C460D46CE
:1036C80002B322786378D21A12F0030229D1294F63
:1036D80071004FEA450C3144AC44890001EB0C11F0
:1036E80001330431DBB27A18606823702146FFF792
:1036F8009DFF214B0122294630465A5503F056FFBB
:103708000020F8BD03F03CFF0028DAD029463046F7
:1037180003F028FF637860B92278D21A12F0030206
:10372800D5D0012A03D00133DBB22370E1E710467C
:10373800F8BD05EB450206EB46010E4F120102EB00
:1037480081023A447100907AD27A90424FEA450C4D
:1037580005D02078C01A10F00302E2D1BBE7227826
:10376800D21A920702D00233DBB22370D4E90203E3
:103778009847C5E79C090020180900202DE9F04F5B
:10378800DFF8609119F8003089B0002B59D0DFF8C4
:1037980058A1C0EB00134FF0000B00EB40079B0053
:1037A8000324CDE904BB09F800B00AEB071703931B
:1037B80002948346B8460023B96A58F8240F079341
:1037C80007AAFFF73DFF044607AAB4B1079D2E7864
:1037D8006978761A06F00306012E35D02B78591A27
:1037E80001F003010129DBB23DD1D7E90901FFF757
:1037F80027FF044607AA002CE8D197F82E3097F83F
:103808002F209A4203D087F82F300123049397F88A
:103818002C3097F82D209A4203D087F82D300123B9
:103828000593029B5D1EEBB2FF2B0293A7F10C07D9
:10383800C0D10499D846DDF814B011B1BBF1000F1E
:1038480045D009B0BDE8F08F01396970079BD3E90D
:1038580002029047079D2A786978D3B2521A02F07B
:103868000302012A21D0B86A019300224146FFF7DA
:10387800EFFE6C60019B6A786B702B789B1A03F0E3
:103888000303012B08D0D7E9090107AAFFF7D8FEDF
:10389800012E044698D10EE0039B6A701A1D294632
:1038A80020465244FFF7C2FEEDE7D7E9090107AA0F
:1038B800FFF7C6FE0446029B8BB1012359465846C2
:1038C80009F80B3003F072FE09B0BDE8F08F5A46D4
:1038D8004146404609B0BDE8F04F03F037BE002C22
:1038E8008BD0EAE7180900209C0900204B1EDBB2A8
:1038F80071B1411E00EB030C002011F8013F23B108
:103908005A1E01301340C0B2FAD16145F5D1704753
:103918000846704770B5057E0468FF2D2AD02A46F0
:103928004FF0000C07E09E6814F80E30FF2B154688
:10393800B4441FD01A4602EB420391424FEA031ED9
:1039480004EB0313EFD18D4202D114F80E20027656
:1039580014F80E20986805EB45052D01FF2A6255DD
:1039680006D002EB420204EB021293680344936010
:10397800604470BD002070BDA2EB010C1CF4000F68
:1039880010B4836844690AD12CF07F4C6344A34285
:103998000DD8E41A00234461836010BC7047891A6B
:1039A80021F07F418B4208D95B1AA342F1D91B1B36
:1039B80000244461836010BC70470C44E41AE9E7B2
:1039C8002DE9F041244DBDF824708E462C2101FBD1
:1039D8000055696801EBCE0011F83E60C478417863
:1039E80004F1010C5FFA8CFC664598BF4FF0000C9F
:1039F80061452DD0466804EB4404210106EB04140C
:103A08004FF0040806F801806360069BA360079BDB
:103A1800E360089B23610A9BA3610F9B63620B9B76
:103A2800E3610C9B23620D9BA3620E9BE36202235E
:103A38006270A782A37080F803C0D5E90836704683
:103A480098472B4641460022B047A078BDE8F08150
:103A58000120BDE8F08100BF5C0A00202DE9F04F8D
:103A680087B00346427A019000685F680290002A96
:103A780000F0EF80531EDBB207EBC3038A460393C3
:103A88000597039B5A6893F801B00492BAF1FF0FA7
:103A980057D00AEB4A04029BCDF800A04FEA04195C
:103AA800002513F809A003EB0414019BFF272770D6
:103AB8001E681B7E06EB0908BB42D8F808100DD11A
:103AC800C1E0091A05D1B8F81E90BEF81EE0F1450C
:103AD8007AD8B25CFF2A1F4665D0134603EB43022F
:103AE80006EB021E4FEA430CDEF8080088424FEA54
:103AF8000212E6D9FF2FC8F8081088F800305DD107
:103B0800DDE900200276634406EB03139A68521A33
:103B18009A60A37801336370002DB7D0AB6A4FF079
:103B280000022A70AA7013B1E96A002098476368F6
:103B3800002BABD1AB6A2362EB6A6362BAF1FF0F69
:103B4800A7D1039B049E99780BEB4B030BF1010063
:103B580059454FEA03125FFA80FB06EB031569D05B
:103B6800039B1878B35C584508BF4FF0000B042B33
:103B7800EAD16978029801EB410300EB03144FEA9C
:103B880003196078A378984220D04FF00003B3540B
:103B9800AB6A4FF001020120AA700BB1E96A98479D
:103BA800039B9978D0E79C444FEA0C1C009BC8F80B
:103BB800081088F8002006F80C30AAE707EB47073A
:103BC8003F01009AF2559EE7014693E7019AAB8AB6
:103BD800009151694FF6FE72934207D04FF6FF727B
:103BE8009B1AB3FA83F35B0984F82C306B6AA362DF
:103BF800EB6863602B69236200226262AB8A4FF62E
:103C0800FD70834288BF1346A383AB69A361EB6948
:103C1800E3602B6A2361AB68A36062616A6820462F
:103C2800FFF7AAFE4FF00003E383E37843F00103B4
:103C3800E3703AE7039A517005999142A2F108039B
:103C480007D003931DE706F80930DDE90032137643
:103C58005FE707B0BDE8F08F2DE9F04F447E012300
:103C68008FB08376002C40F0BA80037EFF2B81460C
:103C780000F0B48003F048F9D9F81420D9F81C30C2
:103C880099F81880D9F80060801A20F07F4B5B45BE
:103C980094BF00230123B8F1FF0F0393A2467CD001
:103CA800049408EB480806EB08144FEA0818A368C0
:103CB8005B4571D8A27816F80880ABEB030B9A44E1
:103CC80063789B1ADDB2012D63D1A06AA3690293C0
:103CD800002800F019810168002900F08380002B7A
:103CE80000F02A81039B002B00F04A81037A5A07CF
:103CF80000F03B81037A23F007030372E78BE27835
:103D080022F001027B1CE27094F82C209BB2E38322
:103D1800002A00F0E080A28B9A4280F0DC80A06A42
:103D2800002800F06581037A03F00703012B00F0F7
:103D3800D280002741684760A36A1A7A67F30202B3
:103D48001A72A278E768013AA27017B36369D9F8C2
:103D5800142094F803C0AAEB0303134423F07F4014
:103D6800626A23690CF0010C002D40F0DF80B4F882
:103D78001EE0CDE900C37346B847DDE90223002AF7
:103D880018BF43F001030393E378E58365F3000369
:103D9800E370B8F1FF0F84D1049C99F80B3099F8BF
:103DA8000A209A4208D10132D2B2022A1ABF144616
:103DB8002346002389F80B4009EB83030022C3F84C
:103DC8000CA0D9F8244089F81A204B460122042176
:103DD8000320A4460FB0BDE8F04F604784760FB0CB
:103DE800BDE8F08F029B002B00F08C80039B002B1A
:103DF80080D1D9F81C309A45FFF47CAFB8F1FF0F99
:103E08007DD0029BE78B09939C46A38B6168CDF814
:103E180018B0BB429ABFFB1A9BB23B4603FB011387
:103E2800CDE907A805934FF0000E43460B92DDF845
:103E380024800C95CDF824C0A3468A4684460D9765
:103E4800CDF8289003EB430306EB03121B0191689E
:103E58008E44F04548D3906A946900283FD00068A2
:103E680000283CD0D58B978B5068AF4240F29380A6
:103E7800002840F09780BCF1000F32D08146DCF872
:103E8800000028B1029919B97444A04280F0BD809D
:103E9800AF4226D8D0789BF8032000F0010402F046
:103EA8000105A54205D34240D1071AD4B9F1000F44
:103EB80017D060465C46DDF820800C9DDDF824C0F4
:103EC8000D9FDDF82890DDE906BA002840F09680BD
:103ED800CDF808C013E7A378013BA37059E7002C7D
:103EE800C0D1F35CFF2BADD16046DDE9088C5C46A0
:103EF800DDE906BA0B9ADDF82890CDF808C000284D
:103F080000F09080002514E7029B5BB3039B002B15
:103F18007FF4F4AED9F81C309A45FFF4EFAEB8F14F
:103F2800FF0F7FF46EAF03990D460BE7CDE900C391
:103F38004FF6FF73B8472CE7039B63B9D9F81C30D9
:103F48009A4508D3B8F1FF0F54D04FF0040CE78B13
:103F5800CDF824C059E704230293037A5A077FF463
:103F6800C9AE02E0029D0021ECE6A18BE28B9142F2
:103F78003FF6C0AE012262F302030372E78BBEE68E
:103F8800D9F81C309A45FFF4B1AEB8F1FF0F7FF4B1
:103F980038AF039DCDE668B9BCF1000F7FF46EAF72
:103FA800E14677E7BAF1000F20D1BCF1000F98D0B5
:103FB800D14664E7BAF1000F12D0A5EB07091FFA42
:103FC80089F9411A00FB0911059888422CBF4FF066
:103FD80000094FF00109BCF1000F7FF450AF57E71B
:103FE800D146BCF1000F7FF44AAF51E7A946E8E794
:103FF800A278B8E70423039D02939AE60168CDF8F6
:1040080008C000293FF476AE70E65C460146DDE95B
:1040180006BA6046DDF820800C9DDDF82890DDF8B2
:1040280024C0ECE7054601468CE600BF837E002BE2
:1040380040F034832DE9F04F477E8DB08346002F42
:1040480076D1837AC27A012141769A4241690791F1
:1040580000F025830133DBB2022B12BF1A463A4621
:104068003B4600EB82028372D268079B0592134499
:1040780023F07F43436101259BF81830089302F031
:1040880043FF9BF80920DBF800300193531EDBF84F
:1040980004600490DBB2002A00F01F84CDE90A75A1
:1040A80006EBC30AFF2303930696D946DAF8047091
:1040B8004FF0000B9AF803109AF8025005EB4504EC
:1040C8006B1CA9424FEA0418DBB207EB041460D05A
:1040D8009AF800209A4208BF00238AF8023017F89D
:1040E8000820042A3AD9082A2CD86178019801EBCB
:1040F800410300EB03161B01B078029373781B1A77
:1041080013F0FF032CD1062A1CD199F81B308B42DF
:1041180050D007F808B0A36A84F802B0002BC9D0C1
:10412800E16A002098479AF803109AF80250C5E708
:10413800446A0421034601220420A4460DB0BDE8C8
:10414800F04F604707F808B04FF00103A370A36A67
:10415800002BAFD0E16A01209847ABE71D46ADE7D9
:10416800052A1ED162684AB9A2683AB9E2682AB932
:1041780022691AB9626932F07F42E3D0012B29D053
:104188000421D9F824404B4601220846A0478AF862
:104198000250069A5245AAF1080300F0E0809A46B8
:1041A80084E7012B00F0A480062AE9D199F81B3096
:1041B8008B42AED16168D9F814208B1A1D0240F1E8
:1041C800BD80059B521A22F07F4293428CBF9B1AF6
:1041D8000023B7E04846FFF79DFBB060D9F814E02C
:1041E800049B059AA3EB0E0323F07F4313449842E4
:1041F80040F2AF80C01A7368002B46D0A38A002B08
:1042080043D0013B9AB2A2827568F38BA84218D8B2
:104218001BE0726ADFF8A4C28BB2A9495118614544
:10422800A0EB050006D902F1E87202F5D43202F5D6
:10423800A5720138316AF383521A72628542A28AE2
:1042480003D2934203F1FF31E3D89A421CD9316A71
:10425800099706E0726201339BB2F383A28A9A42FD
:1042680011D9726ADFF858C2944F0A449444BC4585
:104278002844EFD8A2F1E872A2F5D432A2F5A572CB
:1042880072620130E7E7099FB2836368B16A034449
:10429800B360A26873691344736129B10B681BB1D9
:1042A800D4E901329B1A4B60049A71463046FFF7F5
:1042B80063FBE268B3691344B361226993428CBF1C
:1042C8009B1A0023B361A37D1BB1F27863F300024C
:1042D800F270E37D13B1013B86F82C30DDE9012152
:1042E800039B53547378627803920133737010E719
:1042F800062A3FF40AAF4846FFF70CFBB378B060D4
:10430800737099F81B2063789A427FF402AF17F80C
:104318000830062B3FF44EAFFF2389F81B3017F8FF
:104328000830062B3FF446AF082B3FF443AF0499FF
:10433800D9F814208B1A1D023FF543AF059A23F0D4
:104348007F431344D9F81C209A4288BFC9F81C300F
:10435800DFE6726913441B1A736100204BE7DDE93D
:104368000A75CB469BF81860002D00F01781049B56
:10437800079ADBF800809B1A23F07F4A089BF51AFE
:1043880018BF0125FF2E08BF2C465FD04FF000094B
:10439800CDF804900497DDF81490059506EB4605D2
:1043A80008EB05142D01A2684A4500F26882019BBA
:1043B800A178E08B1344019363785B1ADBF81C1037
:1043C8008A4234BF891A0021A9EB0209AAEB020A22
:1043D80024BF4FF0FF328BF81B20CBF81C10A16ACA
:1043E800A769DBB2002900F0CC800A68002A00F037
:1043F800B480002F40F0B480022B00F03B820022F2
:10440800A26018F805208BF818206168A26A0029B4
:1044180074D122B1127A02F00702012A52D03BB1BC
:10442800012B00D020B1236A13B1616A012098479B
:10443800A37863709BF81860FF2EAFD1DDE904758F
:10444800089BFF2B0CBF2C4645F0010403995846E6
:10445800FFF704FBCDE90247DBF800A0CDF804B074
:104468004FF0000C019B187EFF2800F039820446AB
:104478004FF0FF0800E01C4604EB44030AEB031569
:104488001B01A96A8E4629B10A7A02F00702012A9D
:1044980000F00B811AF80330FF2BA046EBD1DDE9C1
:1044A8000247DDF804B0BCF1000F40F09280089B91
:1044B800834240F08E80002C7BD08EE0592B177FF2
:1044C8005A2B17FFA378C4F808906370079B019ACA
:1044D800DBF814109A1822F07F422046FFF74CFAB6
:1044E800039B08F80530637803960133DBB26370E9
:1044F8009BF81860FF2E7FF451AF9FE722B1137A23
:1045080003F00703012BDDD0B4F81EE0BEF1000F65
:1045180040D1B4F81CE07046D4E908C300220294E4
:10452800BC4FBD4C6344DF19A74200F1FF300A4479
:1045380006D8A3F1E873A3F5D433A3F5A573013224
:10454800441CEDD1029C94F82C706362002F00F09B
:104558008480A260A4F81EE0B8E7002F3FF44FAFB4
:10456800022B7FF44CAF00287FF449AF0A7A02F09F
:104578000702012A3FF443AFCBF81C708BF81B608D
:104588003DE7002F3FF43BAF022B7FF438AF002804
:10459800F2D034E7A37863700020BDE7584603994A
:1045A800FFF75CFA9BF81800089B83420ED19E42E5
:1045B8000CD100238BF819309BF81A30002B49D006
:1045C800DBF824405B4601220321B5E5FF2800F013
:1045D8009281089BFF2B00F06B81DBF8003000EB29
:1045E800400003EB0013D3F80880B8F1000F59D04E
:1045F80002F08AFC0A260446DBF81430E21A22F09C
:104608007F42904506F1FF3602F103011AD9414570
:104618002CBF5B18434423F07F452846DBF828303D
:10462800984702F071FC031B2D1B23F07F430233D4
:1046380025F07F45AB4206D90EB10446DCE700DE23
:104648000446D9E7012700238BF819309BF81A3064
:104658003B43B5D10DB0BDE8F08F92457FF679AFF9
:104668006C48CDF8088006946B4C634403EB000853
:104678000137A0450A44BFB206D8A3F1E873A3F5F1
:10468800D4330132A3F5A5739245EDD8069CDDF825
:104698000880636277441FFA87FE5AE770473D46F1
:1046A8000597E9E48BF819808AE7AA68002A40F0A0
:1046B8003A81D5F818B0BBF1000F06D10A68002A74
:1046C80000F03D818E464FF0040BDEE9002991454C
:1046D80080F0E380A2EB090C1AF80320FF2A00F00F
:1046E800DC800199CDF81C80C969ACEB0B000E1D6C
:1046F8000021CDE90594049099460F4608463446B2
:1047080013460BEB0708C4453FD303EB43030AEBFF
:1047180003121B019668304404287FD9061F3E44C3
:10472800664528BF66460BEB04018C450ED3B045A1
:104738000CD8A969002900F08C809EF80810090798
:1047480000F18780B6EB0B0140F0BD80916A21B182
:10475800097A01F00701012971D0916900296ED009
:104768005268002A6BD0AA6907440431CC19002A80
:1047780063D09EF808201207ACEB0B0100F1AA8069
:104788001AF803300020FF2BBBD14B46DDE9064861
:10479800DDF814908944CEF804901AF803B0BBF100
:1047A800FF0F5A4618BF4FF0FF0C01D1CDE002466B
:1047B80002EB42000AEB00174FEA4209BE688E423C
:1047C8004FEA001080F0C3801AF80000FF289446D2
:1047D800A1EB0601EBD1A960B8F1FF0F00F09F80B3
:1047E80008EB480109010AF801B04A4412011AF815
:1047F80002100AF803100AF80240EB8B013BEB8326
:104808009EF80830022262F302038EF808304FF057
:10481800010C27E65A2B17FF592B177FAE6996B163
:104828009EF8086016F008063FF47DAF9469049A74
:10483800074404343C44A242A2D32146A0E71AF814
:10484800033000219FE791690744043139440C463D
:1048580096E7002C3FF47AAFA6EB0B06A642FFF4CE
:1048680075AF4B46DDF8149022469144DDE90648C1
:10487800114690E700287FF4C2AD042776E64B4640
:10488800D21AA260059D9BF81830089A049F93429B
:104898000CBF2C4645F00104D8E5CEF804901AF870
:1048A8000330FF2B08BF00214FD00023AB60A4E7E3
:1048B80002F02AFB044602F003FB40B99BF81800FB
:1048C800CBF8144089E6A142FFF440AF5DE79BF8BE
:1048D800180082E60A460021ADE7FF23039341E56D
:1048E800029C9B46BCF1000F05D1089BFF2B02D10F
:1048F800002C3FF45EAE02F0F3FA044600287FF481
:1049080058AECBF81C0002F0FFFA8BF81940CBF830
:1049180014009BF81A30002B3FF49CAE50E6019926
:1049280081F818B061E700DEA96AD5F818B08E469C
:10493800BBF1000F7FF4C9AE00297FF4BFAE00DEE3
:104948004FF0040BD5F828E0BFE6A96055E7761AC2
:10495800BCF1FF0FBE60A9603FF44FAF1AF803B077
:1049680062464FEA4C0937E7F8B5069E9DF81C5099
:10497800089CB8B9144F3A605A1E39727B727E602F
:10498800D2B273B106EBC2025460114612F808396C
:104998008E4203EB4300A5EB030304EB0014DDB2E6
:1049A800F2D10DB10120F8BD099B3B620A9B7B62E5
:1049B800FF240B9BBB623C7602F0A6FA7D817861EE
:1049C800FC76FD612846F8BD5C0A002040B9064B1C
:1049D8001A7EFF2A01D1187270476FF00F007047D6
:1049E8006FF01500704700BF5C0A002010B4074B39
:1049F8002C2202FB00335C6A2CB1A446012210BCB5
:104A080003210220604710BC704700BF5C0A0020E9
:104A180010B58AB00C9C00940D9C01940E9C0294D5
:104A2800BDF83C400394109C0494119C0594129C7E
:104A38000694139C0794149C089400240994FEF788
:104A4800BFFF0AB010BD00BF10B4BDF810400494F9
:104A580010BCFEF7B5BF00BF2DE9F047244DBDF8E7
:104A68002C809DF830709DF83CE02C2404FB005508
:104A78006C6804EBC10014F83190C478467804F1EE
:104A8800010C5FFA8CFCE14598BF4FF0000C6645BD
:104A98002AD0466804EB44044FEA041906EB0414D0
:104AA8004FF0050A06F809A06360089BA360099BFC
:104AB800E3600A9B23610D9BA3620E9BE3620223C2
:104AC8006270A4F81480A77584F817E0A37080F8C2
:104AD80003C02B6A6E6A084698472B4600220421B9
:104AE800B047A078BDE8F0870120BDE8F08700BF97
:104AF8005C0A002010B588B00A9C00940B9C0194B5
:104B08000C9C0294BDF8344003949DF838400494FA
:104B18000F9C0594109C069400240794FFF79CFFB3
:104B280008B010BDF8B5194E2C2404FB0066746853
:104B380004EBC10014F831E0C478457804F1010CA5
:104B48005FFA8CFCE64598BF4FF0000C65451BD01A
:104B5800456804EB44044FEA041E05EB04140727D8
:104B680005F80E70A362069BE36202236270A370CD
:104B780080F803C0336A756A0846984733460022AE
:104B88000421A847A078F8BD0120F8BD5C0A0020E0
:104B980002F0BAB9401A20F07F4070470020002187
:104BA800704700BF002303700B70704738B5054687
:104BB80000200C4601F074F970B93DB9074B44B1B7
:104BC80020681860A2889A80002038BD044B002C09
:104BD800F6D11C609C80F7E70C2038BD900A0020B5
:104BE800880A0020012804D808B9034870470348F8
:104BF80070470020704700BF900A0020880A0020F4
:104C0800012809D830B9064B186808609A888A8044
:104C180018467047034BF7E700231846704700BF54
:104C2800900A0020880A002010B5044601F074FCA0
:104C380038B901F04BFF48B92046BDE8104005F0EF
:104C48003FB800DE01F042FF0028F5D000DE204624
:104C5800BDE8104005F034B80860014805F030B8E8
:104C6800140E002005F02CB82DE9F041284E294FEC
:104C780082B04FF00008D6E9000101AAFEF7E0FC77
:104C8800044670B1019D002D3AD02B79022B0BD030
:104C980000DED6E9000101AAFEF7D2FC044600288E
:104CA800F0D102B0BDE8F081002270683146FEF70D
:104CB800CFFCAA6832B11378002B26D01378013BB9
:104CC800DBB213702B7B03B100DE85F80C807B7D93
:104CD800397D0133DBB2052B08BF0023994212D07E
:104CE8002C60797D47F821507B75002AC3D0137852
:104CF800002BC0D19368002BBDD0D0689847BAE785
:104D080000DE019DC1E700DEEFE700DED6E700BF69
:104D1800C40A0020F40C00202DE9F041DFF864807B
:104D2800B8F80050FE2D25D815F0FF0520D0164FF5
:104D38007C7D3B7D15480134E4B2052C08BF002476
:104D48009C4215D0FEF72AFC0646114886B1FEF7AC
:104D580025FC88B106607B7D47F82300B8F8003051
:104D68007C75013D013B15F0FF05A8F80030E0D146
:104D7800BDE8F081FF25DAE730460449BDE8F04197
:104D8800FEF722BCCC0A0020640C0020D00A0020C8
:104D98000C0B00202DE9F8432E4B2F4F04229818B6
:104DA80014214FF00008A7F81480FEF7D3FB2B4B13
:104DB800042208219818FEF7CDFB97F814907C7D03
:104DC80004260134E4B2052C08BF0024A145234879
:104DD80013D0FEF7E3FB05461E4875B1FEF7DEFB70
:104DE800002831D0C5F8048005607B7D47F8230092
:104DF800013E16F0FF067C75E3D1194B0522181DFC
:104E08004421FEF7A7FB174B0722181D0821FEF7C0
:104E1800A1FB1448FEF7C2FB90B1134A111FFEF71D
:104E280001FC1048FEF7BAFB60B1104A111FFEF7EB
:104E3800F9FB0F4B04221A80BDE8F843FFF76CBF5B
:104E480000DEEAE700DEF0E704492846FEF7BCFB8F
:104E5800D3E700BFA00C0020F40C00207C0C00203D
:104E68000C0B0020D00A0020C80A0020C00A00202D
:104E7800CC0A002030B51E4B1E4C87B0186002F0DB
:104E880011F8237863B31C4A1C4D1D4C1D49CDE90C
:104E980004251D4A0220CDE9022404230C24CDE96F
:104EA80000141A4A087408760B700B72002003214C
:104EB800FFF75AFDC8B901220021154808F0F8F893
:104EC80001F0C8FA08B107B030BDFFF763FF01F081
:104ED800E5FD0028F7D107B0BDE8304000F07CBF01
:104EE800FEF7C6FB01232370CDE700DEE3E700BF32
:104EF800100E00206514002001760000A176000045
:104F0800E175000064100020240E002084100020A9
:104F1800140E002030B585B000F064FF38BB174A86
:104F2800174B0024A2F800419C82012221466846C2
:104F380008F0BEF8134B2246214603206D46C3F8FD
:104F480008D0FEF7B9FBA0B94FF0FF324FF0FF339E
:104F5800284604F0E9FE00F085FF60B9FFF71AFF64
:104F68000021012005B0BDE83040FFF71FBE00DE7C
:104F7800D5E700DEE8E700DEF0E700BF0C0D002013
:104F8800640C0020A402002008B5FFF7C3FF01F05D
:104F980097FA00B108BDBDE80840FFF717BD00BF8C
:104FA80010B50022074B82B00260044601AAD3E97B
:104FB8000001FEF745FB08B1019B2360002002B009
:104FC80010BD00BFBC0A002000B50B4983B0002308
:104FD8004868019301AAFEF73BFB58B10749FEF761
:104FE800F3FA019B1B790BB12D2B00D000DE03B027
:104FF8005DF804FB00DEF1E7BC0A0020D00A0020BF
:1050080070B5046806464CB10F4D204624680379F4
:1050180053B12D2B09D000DE002CF6D100233360CC
:10502800BDE87040FFF778BE00DE2B88032B07D859
:10503800013306492B80FEF7C7FA002CE5D1EDE7CE
:1050480000DE2B88F4E700BFCC0A00200C0B002000
:10505800022810B50C4602D00B68022B07D0044872
:105068004FF0FF324FF0FF3304F05EFE206810BDB2
:10507800140E002004490A680AB110467047024617
:1050880008601046704700BFB80A0020044A136839
:1050980023B1984206BF00211160002318467047CB
:1050A800B80A0020014B1868704700BFB80A0020F2
:1050B80070B505682B7884B0EBB104460122002155
:1050C800684607F0F5FF0D4B6E46C5E902362B78AA
:1050D8008BB10B4B0022114603209C60FEF7ECFAC3
:1050E80038B94FF400420023304604F01DFE04B0E6
:1050F80070BD00DEF5E76FF07700F8E76D4C000053
:10510800940200200B490A7D4B7D9A420AD8A3EBF2
:10511800020C5FFA8CFC604509D89A4207D051F816
:105128002200704705339B1ADBB29842F7D900205A
:10513800704700BF640C00202DE9F0431A4D9DF81C
:105148001C8095F801C10CF1010E5FFA8EFEBEF1CC
:10515800080F994695F8003108BF4FF0000E7345C7
:105168001DD0144605EB4C1CE36807460E46106834
:105178005168926864460FC49CF81C30CCF81860DB
:1051880008F0010823F0030343EA0803CCE9049775
:105198008CF81C3085F801E16046BDE8F0834FF0DB
:1051A800000C6046BDE8F0830C0D0020054890F81F
:1051B800003190F801219A4214BF00EB43100020FF
:1051C800704700BF0C0D002001460B480A7890F884
:1051D8000131072A84BF90F800210A70934208D051
:1051E800531CDBB2082B08BF002300EB42100B70E6
:1051F80070470020704700BF0C0D00202DE9F04FCC
:105208003D4E96F8003196F8012187B09A420290F7
:105218003ED04FF00008CDE9048806EB43130A247A
:10522800CDF80C80C346C2461D7FD3F80090DF68D6
:10523800C5F3400205F00105002C4DD0013CE4B255
:105248004AB396F8011196F80031994220D00133FB
:10525800DBB2082B08BF0023994286F8003117D02B
:10526800590106EB4313002ADED1D86805BBBAF111
:10527800000F33D0BBF1000F36D01A7F9707D3D178
:105288005045725834D05845CED105998A42CBD171
:1052980007B0BDE8F08F194902988B600B4611469C
:1052A8000192FEF709FA019A0028CAD000DEC8E781
:1052B800039ABAB1B8F1000F08BFB8461A7F95072C
:1052C800B2D4D207DCD5BBF1000FADD1039A82422C
:1052D800DED08045A8D1DBE700DEAFE7BA46CDF8DF
:1052E8001090EBE70397E9E7BB46CDF81490E5E7A4
:1052F80004998A42C7D1CBE70C0D00207402002024
:1053080070B5114A117D537D8B421BD04B1CDBB20B
:1053180052F82140052B08BF0023137584B10223DE
:10532800054600262068094A237121462660A560A3
:10533800FEF77CF90122064B11463046FEF7BCF910
:10534800204670BD0024FBE7F40C0020C80A0020AA
:105358008402002010B582B00024049B93F80AC090
:105368002CF0020C83F80AC0CDE9004401F0C4F91E
:1053780002B010BD10B50346007F1A69996901246F
:1053880082B02040CDE90004586901F0B5F908B9A8
:1053980002B010BD7730FBD000DEF9E70B8A002B96
:1053A80033D030B5054683B001F10C000C4606F049
:1053B800C6FD012826D1002301A92046019300F04B
:1053C800DBF90146C0B1C36828691A78042A05D0F8
:1053D80003682846984720B103B030BD5B78052B99
:1053E800F6D1019D45B1284600F09EFB0346019980
:1053F80007486B7107F047FE2046FCF719FF0020AD
:1054080003B030BD6FF01500E6E76FF01500704788
:105418001811002010B50469FFF7B6FD40B905481A
:10542800FCF794FC0448FCF791FC0020206010BDB8
:1054380000DEF4E770050020F00500202DE9F041BA
:10544800076982B006464FF000082A484FF0FF323D
:105458004FF0FF3304F0FEFB0028F6D090F905303A
:1054680001905A1E032A2ED8022B34D04FF0FF3257
:105478004FF0FF330220FCF72FFF04460198002C61
:1054880033D0214600F04AFB019B01A8C3F80080F5
:10549800FFF7B6FD204606F003FD0546214600202D
:1054A80006F005FD2B8A012B04462946304606D90D
:1054B8003B68984705F048F8002CEBD1C5E728462B
:1054C800FCF7B6FEF6E700DE019B01A8C3F80080F2
:1054D800FFF796FDB9E70022002301210020FCF721
:1054E80013FF04460198002CCBD1046001A8FFF7F4
:1054F80087FDAAE71811002010B582B00DF102014E
:1055080001A8FFF74DFD0028F8D1019B6BB1FFF70B
:105518005BFD019C204600F007FB0199607107487C
:1055280007F0B1FD019B002BE8D14FF0FF324FF09F
:10553800FF33034804F0F8FBE0E700BF1811002030
:1055480028110020F0B50546076989B00E461F48A6
:1055580007F06BFD4FF0FF3200211D4807F0A8FD52
:105568001B48FFF787FC044660BB3E6000F0DEFA8C
:10557800002600276FF00903CDE90334CDE906675B
:10558800CDE90144134B144900954FF4E0721348D8
:1055980004F0E0FD1249114807F05FFE6FF00702C2
:1055A800CDE90324CDE90667CDE901440D4B0E4949
:1055B80000954FF460720D4804F0CCFD0C490B487F
:1055C80007F04BFE204609B0F0BD00BF18110020BF
:1055D8002811002001550000281D0020700500201A
:1055E800D8DB000045540000E81E0020F00500202C
:1055F800E8DB000008B504F061FF054807F01DFD71
:10560800034807F012FDBDE8084004F06BBF00BF77
:1056180018110020F0B5013887B01446092806D8BB
:10562800DFE800F009283E050550056281946FF017
:10563800150007B0F0BD4E4B0D21188806F0F6FC9A
:105648000D2120600C3006F042FC4FF480620023EC
:105658004FF002140421A0F8052002220370C0F8BC
:105668000140C171037242728372C37203730020D6
:1056780007B0F0BD3E4B4121188806F0D7FC412108
:1056880020600C3006F023FC002104463E2200F87E
:10569800031B07F0CEFF40F2A733A4F80130E6E77A
:1056A800334B0921188806F0C1FC092120600C3011
:1056B80006F00DFC0346002203F8012BC0F8012078
:1056C8005A60D4E7C9680020FFF770FA284B012117
:1056D800188806F0ABFC012105460C3006F0F7FBF4
:1056E800002303702560C2E7224E214F0FCE01AD83
:1056F8000FC5336838882B70122106F097FC1221E9
:1057080020600C3006F0E3FB0446002301AE04F8E9
:10571800013B84460FCE2D78CCF801006160A26071
:10572800E3602574A3E7124B1821188806F07EFC65
:10573800182120600C3006F0CAFB00230446012122
:1057480000F8023B01F034FB607090E7084B212120
:10575800188806F06BFC212120600C3006F0B7FB9E
:105768000146002301F8113B013001F071FB7EE78F
:105778003214002008DC0000F0B5038A8BB0002644
:10578800022B059621D9044603210C3006F0CFFBE5
:10579800228A83789A4218D30188AB4FC1F38523B4
:1057A800082B88B23980C1F3090512D078D8032BA9
:1057B8005FD0042B64D1691E082961D8DFE801F0A5
:1057C800BC9D8B60606060607C00002420460BB04C
:1057D800F0BD691E4A2953D8DFE811F0830173012F
:1057E8004F0152004A013C01290123011D010D010D
:1057F8005200520052005200520052005200520011
:105808005200520052005200F000E10052005200D3
:105818005200D20052005200520052005200520070
:1058280052005200520052005200520052005200E0
:1058380052005200520052005200520052005200D0
:1058480052005200520052005200520052005200C0
:1058580052005200520052005200520052005200B0
:1058680052005200520052005200520052005200A0
:10587800C200032D00F04081632D07D0012D05D013
:1058880001210BB0BDE8F04006F0E2BB012106F0B3
:10589800CDFB012104460C3006F019FB067095E794
:1058A8003F2BEDD105AA21462846FFF7B3FE163057
:1058B80040F031813888E3E7072106F0B7FB07217C
:1058C80004460C3006F003FB0146002001F8010BEA
:1058D800FFF796F97AE7092106F0A8FB09210446A3
:1058E8000C3006F0F4FA0346002203F8012B60217D
:1058F800C0F801205A60417168E7412106F096FB23
:10590800412104460C3006F0E2FA00210546402207
:1059180000F8011B07F08DFEC022AA714FF40A722D
:1059280004234A49A5F80F208022EB72EB75C5F8CD
:105938001A1085F8272049E7092106F077FB092185
:1059480004460C3006F0C3FA4FF450610023404A75
:1059580001800D218370C3700171C0F8052035E7FF
:10596800032106F063FB032104460C3006F0AFFA6E
:105978000146002301F8023B0130FFF713F925E740
:10598800092106F053FB092104460C3006F09FFA62
:1059980000234FF4407202604360037216E7092146
:1059A80006F044FB092104460C3006F090FA002367
:1059B80000F8013B082100F093FD07E7E0680023A9
:1059C80006AA00F1100101F0B9FE3888112106F08D
:1059D8002DFB112104460C3006F079FA0646002307
:1059E80006F8013B06AD07460FCDC7F80100716008
:1059F800B260F360EAE6E3681878FAF789FF0546CB
:105A08000121388806F012FB012104460C3006F00B
:105A18005EFA0570DAE6E16811F8010B00F010FB98
:105A2800EDE7E16811F8010B00F09CFAE7E70221C5
:105A380006F0FCFA022104460C3006F048FA00236E
:105A480003704370C2E600BF32140020F703C00899
:105A5800F105FFFFE468A57BA379627921792088A5
:105A68000295657B01950734009400F049F9C6E773
:105A7800E1680120FFF79AF8C1E7092106F0D6FA94
:105A8800092104460C3006F022FA0346002503F8E3
:105A9800015BC0F801505D600646FFF77FF82B46B2
:105AA80061F30703C1F3072262F30F23090C61F3C3
:105AB8001743090A61F31F63C6F80100C6F80530E9
:105AC80084E6042106F0B2FA042104460C3006F0FC
